:1000000014C02EC02DC02CC02BC02AC029C028C0AF
:1000100027C026C025C024C023C022C021C020C0C4
:100020001FC01EC01DC0706EE46D11241FBECFE541
:10003000D4E0DEBFCDBF10E0A0E6B0E0E8E2FCE136
:1000400002C005900D92A236B107D9F710E0A2E6E2
:10005000B0E001C01D92AD3BB107E1F7EED8E2CDB3
:10006000CFCF959A14DD95980895DF93CF930F9293
:10007000CDB7DEB722B3982F92959F70207F922B39
:1000800092BB898305DDEDDF92B389818F70907F0C
:10009000892B82BBFDDCE5DFF6DC82B3807F82BB8F
:1000A0000F90CF91DF9108959498DFDF0895949A8F
:1000B000DCDF08958F5CFBDF089581E0F5DFD9DC9C
:1000C000089581B38F6381BBD1DC82B3807E83606E
:1000D00082BBC7DFCEDCC5DFD0DCC3DFCEDC82B3C2
:1000E000807E826082BBC9DCBCDFC7DC88E2DCDFEB
:1000F0008CE0DADF86E0D8DFE0DF0895EF92FF9250
:10010000CF93DF93E82EE7017E01F92EE70101C0CE
:10011000CEDF89918823E1F7DF91CF91FF90EF90B7
:100120000895CF93DF93EC01CE014FDD882329F0B2
:10013000803819F0BCDF2196F7CFDF91CF91089579
:100140000F931F93CF93DF938C01C0E0D0E0C801E1
:100150008C0F9D1F3ADDABDF2196C830D105B9F772
:10016000DF91CF911F910F910895833010F5E82F03
:10017000F0E0EE0FFF1FEE0FFF1FEF55FF4F8281E4
:1001800093818B5E984D6AE670E04AE050E009DDAD
:1001900080916B00803309F08ADF8EE288DF8091E6
:1001A0006C0085DF80916D0082DF86E580DF80E274
:1001B0007EDF08951F93182F80EC76DF82E091E0B8
:1001C000B0DF812F82958F70D0DF812F8F70CDDFD0
:1001D0001F910895DF93CF930F92CDB7DEB760FFE5
:1001E00003C098B3982B04C028B3982F90959223FE
:1001F00098BB97B3982B97BB89833ADC97B38981D7
:100200008095982397BB98B3982398BB0F90CF9174
:10021000DF9108952F923F924F925F926F927F925B
:100220008F929F92AF92BF92CF92DF92EF92FF9206
:100230000F931F93DF93CF93CDB7DEB72D970FB6F4
:10024000F894DEBF0FBECDBF182F062F542EA895F1
:10025000A62EBB24C501815A9E4FB7DC382E852DB2
:1002600090E0815A9E4FB1DCD82EE82EEE0C812E04
:100270009924C401815A9E4FA8DCC82E282F220F32
:100280002B83C4018E599E4FA0DC482EC5018E5988
:100290009E4F9BDC282E18BA37BA44BA45BA8D2D2A
:1002A00060E098DF802FFEDB9D838C8333E0813D0F
:1002B000930738F08D2D61E08DDF802FF4DB9D8377
:1002C0008C838C819D818D35910508F455C08E2DD0
:1002D000832987BB802FE4DB5C01E8BA802FE0DB59
:1002E000950128513E4F28173907E0F415BA24BA72
:1002F0008E2D8C2987BB88BB852DD2DBAFE088345F
:100300009A0720F083E08093650004C083E0809327
:10031000650085E0809364005092990010939A00E4
:1003200000939B0015BA24BA8E2D8C2987BB88BBFD
:10033000812FB6DB5C01C8BA812FB2DB88519E4F9A
:100340008A159B05C8F445BA44BA852DA9DBB3E0EC
:10035000813D9B0728F483E08093650084E004C01E
:1003600083E08093650086E080936400509299005A
:1003700000939A0010939B0015BA24BAC8BAEC2DCA
:10038000ED29E983E7BB812F8DDB5C01852D8BDBBC
:10039000BC018A30910518F58E2D8C2987BB812FE1
:1003A00081DB4C01852D7FDB5C0169E873E1681915
:1003B000790980E090E02BE932E040E050E09CDBFE
:1003C000950140E050E0CBDB49015A012030F0E0DC
:1003D0003F07F1E04F07F0E05F0760F411C089E8E4
:1003E00093E18A199B09861B970BA5DB4B01AA2475
:1003F000BB2406C06FEF862E6FEF962EA12CB12C7A
:1004000037BA18BA44BA45BA34DB2C813D8183E04F
:10041000213D380708F0EFC19D2D93299E8397BB9E
:10042000802F40DBADE08F359A0708F4A0C0BE2DC9
:10043000B329BF83B7BB802F35DB99878887852D8C
:1004400032DB3C01F09065008F2D8250823018F431
:1004500081E080936200E5E36E16710418F455E3C1
:10046000652E712C80916200282F30E03B872A870F
:10047000A885B985BD0180E090E02FE932E040E039
:1004800050E03ADB930140E050E069DBEA85FB8510
:10049000EE0FFF1FEB56FF4FFB87EA873183208368
:1004A00040E050E0281539054A055B0510F49182BB
:1004B0008082FF2DF53009F45AC022ED621623E048
:1004C000720630F082E0809365008093640049C03A
:1004D0008C819D818136910508F043C0A885B9853E
:1004E000E7E0A13DBE0708F43CC083E080936500CF
:1004F00082E08093640097E0A92EA220852D80647D
:1005000087B981E090E090939D0080939C008BE000
:10051000F82EA8958D2D61E05DDEFF81F7BB83B3DA
:100520008A21E9F337BA369A3699FECF24B135B12C
:1005300080919C0090919D0081509C4F821B930B59
:1005400090939D0080939C00FA9419F7880F991F4F
:10055000880F991F69E070E0EEDA70939D00609358
:100560009C005092990000939A0010939B002E815A
:1005700027BBD8BA802F96DA4C01852D94DAA9E8EA
:10058000AA2EA3E1BA2EB501681B790B6A3071055A
:1005900020F58E2D832987BBE8BA802F83DA3C01B2
:1005A000852D81DA4C01B30180E090E02FE932E043
:1005B00040E050E0A1DAA818B908950140E050E009
:1005C000CEDA49015A0130E0831630E0930631E07B
:1005D000A30630E0B30648F40EC0C401861B970B97
:1005E000AADA4B01AA24BB2406C0FFEF8F2EFFEF2F
:1005F0009F2EA12CB12C24BA15BA898187BB88BB48
:10060000812F50DAA6E080349A0708F0F1C080917B
:100610006200813009F44EC18D2D60E0DBDD812F59
:1006200041DA3C0118BA25DAC8BA812F3BDAB0E4C6
:100630006B16B6E07B06D0F5E1E181339E07B0F1A1
:1006400085E08093650017BA18BA25BA12DAC7BADE
:10065000812F28DA853F910508F0C4C0F981F7BBE6
:10066000852D20DA23E0813D920708F4BBC0812F5D
:100670001ADA32E08D3D930708F4B4C0C7BA812F6F
:1006800011DAA2E08D3D9A0708F4ACC0C8BAF1D9DE
:1006900018BA812F07DA853F910508F0A3C084E0DE
:1006A0008093650081E0809362009CC06E2C6C2872
:1006B00067BA68BAD9D9812FF6D9E9E8EE2EE3E115
:1006C000FE2EF701E81BF90BFA83E983852DEBD9A0
:1006D000E81AF90A809165008250823018F481E0AE
:1006E00080936200F5E3EF16F10418F475E3E72E4A
:1006F000F12C80916200282F30E039872887A9816A
:10070000BA81BD0180E090E02BE932E040E050E0AA
:10071000F3D9970140E050E022DAE885F985EE0F41
:10072000FF1FEB56FF4FF987E8873183208340E0B6
:1007300050E0281539054A055B0510F49182808246
:10074000FEEFEF16F9E0FF0638F082E080936500D7
:1007500081E08093640046C02C813D8121363105C3
:1007600008F040C089819A81ADE089349A07D0F1C0
:1007700083E08093650081E08093640057E0F52E6C
:10078000F420852D806487B981E090E090939D00EE
:1007900080939C004BE0E42EA8958D2D60E01ADD3F
:1007A00067BA68BA83B38F21E9F7C7BA369A369920
:1007B000FECF84B195B120919C0030919D00820FB5
:1007C000931F90939D0080939C00EA9429F7880FD3
:1007D000991F880F991F69E070E0ADD970939D0053
:1007E00060939C005092990010939A0000939B0094
:1007F00014BA15BA5FC015BA24BAC7BAC8BA8D2DD3
:1008000061E0E8DC812F4ED94C01802F4CD9881A49
:10081000990ABB81B7BBB8BB812F44D95C01C7BA69
:10082000C8BA8D2D60E0D6DC812F3CD97C01802FA9
:1008300039D9E81AF90AEB81E7BBE8BB812F32D935
:10084000E814F90418F0A82EB92E4701C4018759FD
:100850009040F1E189389F0768F5C50123E096953E
:1008600087952A95E1F78A0D9B1D8815990510F546
:10087000B3E0AA0CBB1CBA95E1F78A149B04D0F430
:1008800080916500882311F0863019F481E080930F
:10089000650080916300E82FF0E0EE0FFF1FEE0F80
:1008A000FF1FEF55FF4F10830183938282828F5F7A
:1008B00080936300A89515BA24BAC7BAC8BA802F26
:1008C000F1D84C01812FEFD89C0118BA8B8187BBDE
:1008D000812F2C873D87E6D82C853D858531910574
:1008E00008F009C19B8198BB812F2C873D87DAD8FE
:1008F0005C0144BA45BA18BA37BA812FD3D83C0143
:10090000802FD1D87C01330C37BA802FCBD86C0123
:100910002C853D85A1E120333A0728F4B2E6AB16D9
:10092000B10438F0E8C0ECE6AE16E3E1BE0608F02C
:10093000E2C0F9EAEF16F10408F041C026E2C2165F
:10094000D10408F4D8C079E8872E73E1972EB4015A
:100950006C197D0980E090E028E937EB40E050E039
:10096000CBD8960140E050E0FAD869017A01B50190
:1009700080E090E028E937EB40E050E0BDD88A18ED
:100980009B08940140E050E0EAD8C20ED31EE41E5A
:10099000F51EF694E794D794C794C701B60124E6F0
:1009A00030E040E050E0A8D86B017C0188E59BE195
:1009B000A0E0B0E0C80ED91EEA1EFB1E3CC05901E3
:1009C0008216930608F45401B701E614F70408F4FC
:1009D000B3014501A216B30608F449016B01E616FE
:1009E000F70608F467016C197D0980E090E024E5C2
:1009F0003BE140E050E080D8960140E050E0AFD8C5
:100A000069017A01B4016A197B0980E090E020E86D
:100A10003BE140E050E070D829E833E1281939097A
:100A200040E050E09CD8C20ED31EE41EF51EF694A2
:100A3000E794D794C79480916500823018F086308F
:100A400009F059C03091680020E03DC0822F90E04D
:100A5000FC0143E0EE0FFF1F4A95E1F7E81BF90B9D
:100A6000EA58FF4F8681851511F02F5F2CC08080DA
:100A70009180A280B380C701B601681979098A09FB
:100A80009B0997FF07C090958095709561957F4F62
:100A90008F4F9F4F2AE030E040E050E02DD8A50175
:100AA00094012C593F4F4F4F5F4F2C0D3D1D4E1D54
:100AB0005F1D55D82115310541055105E1F486E04A
:100AC0008093650018C0231708F2832F90E0FC0183
:100AD00023E0EE0FFF1F2A95E1F7E81BF90BEA5818
:100AE000FF4FC082D182E282F38204831583568253
:100AF0003F5F3093680014BA15BA17BA18BA2D962A
:100B00000FB6F894DEBF0FBECDBFCF91DF911F911E
:100B10000F91FF90EF90DF90CF90BF90AF909F909C
:100B20008F907F906F905F904F903F902F9008959F
:100B3000AF92BF92CF92DF92EF92FF920F931F93EB
:100B4000CF93DF93AAE0DA2EFAE2AF2EE5E1BE2ED4
:100B500078E0C72E14BA15BA18BAA7BA80E0A2D79F
:100B60008C0181E0A0D7EC0182E09DD72091650047
:100B70002830C1F041E0C330D10508F040E021E069
:100B80000330110508F020E0422350E021E030E07E
:100B90008330910510F020E030E024233523211527
:100BA000310519F014BA17BA4AC021E033E0083E03
:100BB000130708F020E033E0C83ED30708F42260B2
:100BC00033E0883E930708F4246024BBB7BAC0E042
:100BD000D0E0A89580E064D77C0181E064D78C01E7
:100BE00082E061D724E1E21625E0F20608F4A09A3B
:100BF00035E00431130708F4A19A25E08431920707
:100C000008F4A29A35E0E316F10430F4053011053A
:100C100018F48530910538F0219681E0C43FD8075B
:100C2000C1F6C092650000E010E003C026D70F5F58
:100C30001F4F0C171D07D0F3DA9409F08BCFDF910B
:100C4000CF911F910F91FF90EF90DF90CF90BF90C9
:100C5000AF900895FF920F931F93CF93DF9321E0FE
:100C60008C32920718F08C52914002C080E090E0E4
:100C700069E170E060D7F82E6D3208F06CE2C62FA3
:100C8000D0E0CE01880F991F80509040A6D78C01EC
:100C9000CE01880F991F8E5F9F4F9FD79C0149E11E
:100CA0004F1950E0081B190B409FC001419F900D48
:100CB000509F900D11240C9669E170E03CD7620FB3
:100CC000731FCB01DF91CF911F910F91FF9008957A
:100CD000AF92BF92CF92DF92EF92FF920F931F934A
:100CE000CF93DF93182F062F862F90E08E599E4FBB
:100CF0006CD7D82E212F30E0C901815A9E4F65D77D
:100D0000C82E80916500873009F478C1863009F4D7
:100D100075C130916300E1EAF0E020E00FC081810D
:100D2000801751F48081811739F48281938145E0E5
:100D30008C3D940708F462C12F5F3496231778F333
:100D4000F7DE15BA18BAD4BAC7BA812FACD65C018F
:100D5000C0E0D0E08C2D61E03DDA90D6A895812FDF
:100D6000A2D67C01EA18FB08CE37D10521F48BE42A
:100D7000E816F10450F09DE2E91691E0F90628F436
:100D8000219621E0C43FD20729F7109294003DE25A
:100D9000E31631E0F30608F42AC1209731F445E167
:100DA000E41645E0F40608F048C081E08093940022
:100DB000CC24DD245DD6812F76D68A199B09A8958F
:100DC0000894C11CD11CCC15DD05A0F78E159F051C
:100DD00048F49701281B390BC9012536310508F065
:100DE00006C102C080E090E021965E01CC24DD24A3
:100DF000A092B900B092BA00C092BB00D092BC00E1
:100E00008E0D9F1D27DFEC01C601B5012EE831E0F4
:100E100040E050E071D69E0140E050E06DD628E2FF
:100E200030E040E050E09BD62093B9003093BA0008
:100E30004093BB005093BC00CBC0EC2CEE0C78DE92
:100E400018BA8FE084BB15BAE7BA88E080BF84E5A2
:100E500088B9812F806487B986E186B912D61FBC14
:100E60001DBC1CBC8CE388BFE8BA80916500833050
:100E700071F481E08EBD81E090E0012E02C0880F08
:100E8000991F0A94E2F78095877084BB03C081E0C4
:100E90008EBDD4BA84E028B725FD09C022FFFBCF60
:100EA00088BFA895219636E0C034D307A1F71EBCB1
:100EB00080E288BF66B577B58CB59DB568177907B0
:100EC00028F422FF03C084E088BF219618BA43E0CB
:100ED000C032D40708F08BC0CE01E1D56093B900D1
:100EE0007093BA008093BB009093BC001092940062
:100EF000C234D10580F028EE33E040E050E02FD638
:100F00002093B9003093BA004093BB005093BC00CB
:100F100081E080939400609160007091610080E0B6
:100F200090E02091B9003091BA004091BB005091FF
:100F3000BC00E2D520E233E040E050E010D6209340
:100F4000B9003093BA004093BB005093BC0080912D
:100F50009400882379F5113061F42E5F3F4F4F4F95
:100F60005F4F2093B9003093BA004093BB00509379
:100F7000BC008091B9009091BA00A091BB00B091E3
:100F8000BC008F319105A105B10560F04E97A10914
:100F9000B1098093B9009093BA00A093BB00B093BD
:100FA000BC0008C01092B9001092BA001092BB00A9
:100FB0001092BC00C7BA8091B9009091BA00A0917C
:100FC000BB00B091BC0089319105A105B10578F055
:100FD00080916300882321F080916500833039F48B
:100FE00087E0809365000093A0001093660086E977
:100FF00086B99EDD14BA15BA17BA18BADF91CF9127
:101000001F910F91FF90EF90DF90CF90BF90AF9026
:101010000895FF920F931F93CF93DF9380918F00DA
:101020009091900023E0883E920718F0885E9340EC
:1010300002C080E090E062E370E07DD5F82E683079
:1010400008F067E0C62FD0E0CE01880F991F865ABE
:101050009F4FC3D58C01CE01880F991F845A9F4F93
:10106000BCD59C0142E34F1950E0081B190B409F6F
:10107000C001419F900D509F900D1124499662E34D
:1010800070E059D5620F731F709361006093600028
:10109000DF91CF911F910F91FF900895AF92BF9272
:1010A000CF92DF92EF92FF920F931F93CF93DF9334
:1010B0008B019C01F42EEE2448EEA42E43E0B42EC6
:1010C000C12CD12C0CC0C901B8016C507E4F8F4F80
:1010D0009F4FA601950143D589019A01E3940034FD
:1010E00082E418078FE0280780E0380760F7003AAD
:1010F00096E8190791E0290790E0390778F0C901CF
:10110000B8016E5C7F4F8F4F9F4F24E630E040E088
:1011100050E025D589019A01F394E3940031E7E288
:101120001E07E0E02E07E0E03E07A8F0C901B80185
:101130006B5F7F4F8F4F9F4F2AE030E040E050E0E1
:101140000ED589019A01FF2DF23010F0FA9403C0F8
:1011500082E0F80EE394CAE6D0E0C801BE014AE09E
:1011600050E01FD509900020E9F72197CA56D040DA
:10117000AC2ECF1520F480E39AD78EE298D70AE6FA
:1011800010E0CF2DD0E0CA2CDD240DC0F8018191F4
:101190008F018DD7FF2DF23028F0CC15DD0511F42D
:1011A0008EE285D721969E012F192A1578F38E2D70
:1011B000DF91CF911F910F91FF90EF90DF90CF9033
:1011C000BF90AF9008951F93109194006091B90063
:1011D0007091BA008091BB009091BC0041E05EDF4D
:1011E000810F80939400E82FF0E0EA5DFF4F849137
:1011F000809391005CD786E45AD71F91089590E0C0
:10120000FC0153E0EE0FFF1F5A95E1F7E81BF90BC5
:10121000EA58FF4F608171818281938142E03EDF15
:10122000813011F48BE603C0823011F48DE43FD796
:1012300084EF3DD780E23BD708951F93CF93DF9390
:1012400080E481BB80EC82BB86E886B914B784B7A2
:10125000877F84BF88E10FB6F89481BD11BC0FBEB3
:1012600030D713FF07C080E81FD780E291E059D73D
:10127000F2D38CC088E418D787E391E061D780E58A
:1012800013D78FE391E05CD788E50ED787E491E030
:1012900057D780E709D78FE491E052D788E704D782
:1012A00087E591E04DD784E080BF109292001092C4
:1012B0006900CAE6D0E010926500109263001092B7
:1012C000620010926400F9D614BA1092680010926D
:1012D000A000109266008EE0E6D390939000809379
:1012E0008F008EE0DDD304969093900080938F0062
:1012F00085E0D9D385E0D6D390939600809395006E
:1013000080E8D2D683ED90E00CD720919500309103
:101310009600C901880F991F880F991F820F931F8C
:101320006CE770E008D4CB0102966AE670E04AE010
:1013300050E037D480916A00BAD6FE0101900020B7
:10134000E9F720E0EE36F20741F480916B00AFD66A
:101350008EE2ADD680916C0004C08EE2A8D680915A
:101360006B00A5D686E5A3D680E2A1D68091950034
:101370009091960026E0883C920790F425E0803D0D
:10138000920758F48CE790E0CCD666D312BA80E08E
:1013900090E0DF91CF911F91089587E790E002C020
:1013A00089ED90E0BED62FE088E190E00FB6F8948A
:1013B000A89581BD0FBE21BD2CDE80EC75D68CE6D4
:1013C00090E0AFD680EC70D6B3DB809165008830BA
:1013D00071F473D680E868D683E469D685E667D66B
:1013E0008CE665D68CE663D681E261D60AC380E0DE
:1013F00061E042E00FD780E062E041E00BD781E09E
:1014000060E042E007D781E062E040E003D782E09D
:1014100061E040E0FFD682E060E041E0FBD68091F1
:101420006500882321F0863011F0813051F480DB93
:1014300082E060E04DDC82E061E04ADC81E060E077
:1014400047DC3BD680E830D680916500813009F0DA
:10145000D7C0909163009130B9F481E990E061D6F2
:101460008091A10027D68EE091E05BD68091A2000A
:1014700021D680E79FD687EE90E053D68091A200D8
:101480006091A10025DC8BC29230F1F582E30FD68A
:1014900086E191E046D69091A1002091A500921797
:1014A00049F48091A20006D682E191E03AD680917B
:1014B000A10023C03091A2008091A600381789F4C2
:1014C000892FF8D58EE091E02CD68091A200F2D53C
:1014D00082E191E026D68091A500ECD581E06AD624
:1014E00089C2321709F05DC2891709F05AC2E2D5E4
:1014F0008EE091E016D68091A200DCD58EE091E0DE
:1015000010D68091A600E9CF933009F04AC290939B
:10151000990090939A005091A2009091A5005917BC
:1015200021F41092990080939A004091A10030918B
:10153000A600431729F481E08093990010929A0045
:101540002091A900521729F41092990082E080930B
:101550009A008091AA00481729F442E0409399002C
:1015600010929A00321731F421E02093990022E082
:1015700020939A00981731F482E08093990081E0DB
:1015800080939A0080919900833008F00AC280917C
:101590009A00833008F005C283E389D586E191E0A3
:1015A000C0D5E0919900F0E0EE0FFF1FEE0FFF1F96
:1015B000EF55FF4F80817ED58EE091E0B2D5E0916E
:1015C0009900F0E0EE0FFF1FEE0FFF1FEF55FF4FEA
:1015D000818170D58EE091E0A4D5E0919A00F0E091
:1015E000EE0FFF1FEE0FFF1FEF55FF4F818162D5FA
:1015F000809199008295807F90919A00892B6FCF7E
:10160000823009F090C080916200882341F480917B
:101610009500909196009093980080939700809108
:10162000950090919600209197003091980028178E
:10163000390760F4909398008093970080919A0006
:1016400090919B0090939A0080939B0080916400FE
:10165000813019F48DEE90E002C082EF90E061D508
:1016600080916300833050F080916400813019F4E0
:101670008EE091E002C082E191E053D587EF90E0E7
:1016800050D580919B0016D58091990013D58091FB
:101690009A0010D580EC08D58AEE90E042D5809172
:1016A0009700909198006AE670E04AE050E079D2A5
:1016B00025D580E2FCD47091630050919B0040914D
:1016C00099003091640020E029C0822F90E0FC0155
:1016D000EE0FFF1FEE0FFF1FEF55FF4F61816517E4
:1016E00029F4E081E41711F4313071F0FC01EE0FC0
:1016F000FF1FEE0FFF1FEF55FF4F8081851769F425
:10170000641759F4323049F420939A0082E091E052
:1017100008D580919A0029D56DC12F5F2717A8F2AF
:1017200020939A0067C1833009F059C0809164000A
:1017300080FF02C08EE401C080E5B9D48DE2B7D449
:1017400080916400982F9350923010F484E407C085
:101750008550823018F482EE90E004C085E4A7D46E
:101760008CED90E0DED480916400833048F487EE05
:1017700090E0D7D48091990060919B00A9DA23DD95
:1017800080EC92D48DEF90E0CCD48091990092D4EB
:1017900080919A008FD480919B008CD480916300BB
:1017A000882331F080916400833010F481E001C01F
:1017B00080E27DD480916400833008F01BC186E014
:1017C00091E0AFD480919C0090919D006AE670E01A
:1017D0004AE050E0E6D192D48DE669D40BC1853061
:1017E00019F484EA90E004C0843091F48EE990E02A
:1017F00098D480EC59D489E990E093D480919900F1
:1018000059D480919A0056D480919B0053D4F2C051
:10181000863009F0B7C060916800613011F58091A1
:10182000930090E0FC01A3E0EE0FFF1FAA95E1F703
:10183000E81BF90BEA58FF4F85813CD48BE191E01E
:1018400070D48091930090E0FC0173E0EE0FFF1FD5
:101850007A95E1F7E81BF90BEA58FF4F84812AD407
:1018600070C01092930020917D0030917E004091D5
:101870007F00509180008091760090917700A09138
:101880007800B091790082179307A407B50718F480
:1018900081E080939300623019F46093930021C03B
:1018A0008091930090E0FC0163E0EE0FFF1F6A95CA
:1018B000E1F7E81BF90BEA58FF4F209184003091C3
:1018C0008500409186005091870080819181A2819E
:1018D000B38182179307A407B50718F482E08093B9
:1018E000930080919300882361F481E3E0D38BE13E
:1018F00091E017D483E3DBD38BE191E012D482E350
:10190000D6D380919300813061F481E3D0D38BE111
:1019100091E007D482E3CBD38BE191E002D483E35F
:10192000C6D380919300823061F482E3C0D38BE10F
:1019300091E0F7D381E3BBD38BE191E0F2D383E372
:10194000B6D380ECB1D380916800813011F480E08F
:1019500017C080919300882321F481E050DC82E05D
:101960004EDC80919300813021F480E048DC82E0FD
:1019700046DC809193008230E9F580E040DC81E034
:101980003EDC38C0873069F48091A00093D38AE0B0
:1019900091E0C7D3809166008DD380EC85D313DCB2
:1019A00029C080916300882359F487EB90E0B9D374
:1019B00080EC7AD383E890E0B4D38CE890E011C057
:1019C0008CE890E0AED38EEA90E0ABD380EC6CD3A1
:1019D00087EC90E0A6D380916300805D68D38EE0B1
:1019E00091E09FD3809192008F5F8093920010923C
:1019F000690007C010929200809169008F5F809308
:101A00006900879BFECF2DD010929D0010929C0004
:101A10000DC0879B50CCA89530D080919C009091B0
:101A20009D00019690939D0080939C0080919C0066
:101A300090919D0027E28031920758F388E10FB61C
:101A4000F89481BD11BC0FBE96988799FECF33CC18
:101A5000089503D002D001D000D000D003D002D02E
:101A600001D000D0A89500D003D002D001D000D082
:101A700000D003D002D001D000D000D003D002D0DB
:101A800001D000D000D003D002D001D000D000D0CF
:101A900003D002D001D000D0000008959927089506
:101AA000E7DFE7DFE6DF682F80648093270020917F
:101AB00026002064209326002091260026FDFCCFDE
:101AC000E2DF84E090E040E0209126002064209353
:101AD00026002091260026FDFCCF20912400309185
:101AE0002500820F931F4F5F4C3271F769E070E061
:101AF00022D0CB0100240895629FD001739FF00192
:101B0000829FE00DF11D649FE00DF11D929FF00D8D
:101B1000839FF00D749FF00D659FF00D9927729FC4
:101B2000B00DE11DF91F639FB00DE11DF91FBD014F
:101B3000CF0111240895AA1BBB1B51E107C0AA1FA6
:101B4000BB1FA617B70710F0A61BB70B881F991F5E
:101B50005A95A9F780959095BC01CD010895A1E211
:101B60001A2EAA1BBB1BFD010DC0AA1FBB1FEE1F17
:101B7000FF1FA217B307E407F50720F0A21BB30B62
:101B8000E40BF50B661F771F881F991F1A9469F7DE
:101B900060957095809590959B01AC01BD01CF013A
:101BA0000895FB019F0142306CF045325CF4642FD4
:101BB0007727C1DF805D8A330CF0895D8193CB018B
:101BC0000097A9F71082C9010DC0E199FECF9FBB14
:101BD0008EBBE09A99278DB30895A8E1B0E042E06A
:101BE00050E012C0DC01FC01672F71917723E1F70F
:101BF000329704C07C916D9370836291AE17BF07DA
:101C0000C8F30895DC01CB01FC01E199FECF06C0C9
:101C1000FFBBEEBBE09A31960DB20D9241505040A1
:081C2000B8F70895F894FFCF16
:021C2800C402F4
:00000001FF
