:1000000091C10000A1C100009FC100009DC100007E
:100010009BC1000099C1000097C10000F6C7000015
:1000200093C1000091C100000C94221F0C9416256E
:100030008BC100000C94FC1E87C1000085C100002C
:1000400083C1000081C100007FC100007DC10000AC
:100050007BC10000DBC7000077C1000075C1000054
:1000600073C1000071C10000E62FF72F903009F432
:100070009395E5B8C4B8B6EFB0937A00A5E0A09325
:100080007B00A8E0A093810010928000AFEFA093C6
:100090008500A0938400A6E0A093360010928B0008
:1000A00010928A00B3E0AFE3A91B51E0392F33303F
:1000B0002AF0A05CBC4F53953350F9CFB093890020
:1000C000A0938800A0917A00A4FFFCCFB6EBB09378
:1000D0007A00A2E0A0936F00A9E0A093810062E003
:1000E000A0E0A0937B00A1E0A09353008895E5B821
:1000F000C4B884FF1AC0A8E10000AA95F1F7EF93F5
:10010000FF93E7B1F8B1A4E0C2FCA2E0C0FCA1E01B
:10011000BF2FBA2BAE2BB8B904B9A7B9E7B9F8B954
:10012000FF91EF910BC00C947300ACE10000000054
:10013000AA95F1F725B9E5B8000004B9A0918400AB
:10014000A0918500B0918900A395AB1760F7A091AD
:100150007A00A4FFF3CFB6EBB0937A006A9571F7FB
:100160006091780070917900308186FD630F619312
:10017000308186FD731F80FF7193652F4A9579F753
:1001800010926F0010928100B6E0B0937A0008954B
:100190000104100102044E6F742063616C69627285
:1001A000617465642120466F72FF63616C696272DD
:1001B0006174696F6E20636C616D70207468652076
:1001C00033FF70696E7320746F67657468657220A1
:1001D000616E64207374617274207769746820742E
:1001E0006865FF6B65792E2041636B6E6F776C6578
:1001F000646765207468652073656C662D7465732B
:1002000074207769746820746865206B657920773D
:10021000697468696EFF32732E20446973636F6E70
:100220006E6563742070696E7320616674657220F8
:10023000746865FF6D657373616765202269736F0C
:100240006C617465FF50726F6265212220697320B2
:1002500073686F776E2E20536F66747761726520B6
:10026000616E6420646F63756D656E746174696F2F
:100270006E206973206174206769746875622E63EB
:100280006F6D2FFE6D696B726F636F6E74726F6C42
:100290006C6572FE2D6E65742F7472616E73697376
:1002A000746F72FE7465737465722000B9038703FE
:1002B00058032E030703E402C302A40288020000CD
:1002C000140029003E005300690080009700AE0032
:1002D000C600DF00F80012012D014901650182010D
:1002E000A001BE01DE01FF012102440268028E026C
:1002F000B502DE020903350364039403C803FE0359
:1003000037047304B404F90443059305EA05490668
:10031000B3062907AE074808FF08DE09FD0A930C5B
:10032000480F991B11241FBECFEFD8E0DEBFCDBF11
:1003300021E0A0E0B1E001C01D92A23BB207E1F7CD
:100340000E946A0C0C94D82A5BCE80FD5C9A80FFD8
:100350005C98549A00005D9A559A589859985A9802
:100360005B9864FD589A509A65FD599A519A66FDBA
:100370005A9A529A67FD5B9A539A00005D980AD187
:1003800087FD10C05D9A589859985A985B9860FDFF
:10039000589A61FD599A62FD5A9A63FD5B9A000072
:1003A0005D98F8C0089597FF09C08F939F938DE2E1
:1003B0000ED49F918F91909581959F4F63E171E04D
:1003C0004AE050E00E94772A39C40895ECDF01C06A
:1003D000EADF80E2FCC38DE2FAC38DE3F8C3EF925B
:1003E000FF920F931F93182F062FF42E88E691E0AB
:1003F00030D4EE24E0912E01F0912F018685E8168D
:1004000011F4812F09C08485E81611F4802F04C0EF
:100410008585E81611F48F2DDAD3E3948E2D833081
:1004200049F71F910F91FF90EF900895682F80E09A
:1004300092E0662309F491E0623009F481E00895C6
:100440000F93082FEAE9F1E0880F880FE80FF11DFC
:100450006081718182819381643671058105910586
:1004600068F42091110127FD09C0802FDFDF692F7B
:10047000F8D16EEF23E047E057D504C04FEF04E01A
:1004800027E0A0D4A6DF0F910895863058F4E9E85C
:10049000F1E0E80FF11DE80FF11D8081918163E02B
:1004A0004ED597CF08951F93182F8091630188230D
:1004B00019F08FDF80E08BD3A4D38FE591E0C9D30F
:1004C000812F82958F70E1DF812F8F70DEDF1F918A
:1004D00008958091020182958F7019D08091020158
:1004E00083701CD080910201DECF0895EDE7F1E02A
:1004F000E80FF11D0895CF93F9DF9081C681C917E8
:1005000010F405D001C013D064DFCF910895EEDF61
:100510008F93808167D38F9101C008958F9385E277
:1005200091E097D38F91E2DF86815CC30895DEDF8F
:100530008F93868157D38F9101C008958F9381E265
:1005400091E087D38F91D2DF80814CC3089503D08F
:1005500002D001D000D000D003D002D001D000D012
:1005600000D003D002D001D000D000D0A89503D095
:1005700002D001D000D000D003D002D001D000D0F2
:1005800000D003D002D001D000D000D003D002D0E0
:1005900001D000D00000089582E090E0893C28F06E
:1005A000885C48EC849FC0011124009709F40895E9
:1005B00040918100477019F0D9DF0197F6CF813063
:1005C000910519F002975EE303C057E180E090E0E7
:1005D0004091B200450F4093B30042E04093700059
:1005E00047E043BF889546E043BF10927000A8954E
:1005F000DCCF8F9384E0D1DF06C08F93CDDF03C0C3
:100600008F9381E0CADF8F911F93182F106410938E
:100610007C00E12FE07880911E01E81759F0E0930B
:100620001E01AEDF8EE980937A0083E083BF889558
:1006300082E083BF20E030E0A901E0E01FC08EE946
:1006400080937A0083E083BF889582E083BF6091C6
:10065000780070917900260F371F411D511DE4303D
:1006600061F480912001803041F084E0203038072F
:1006700020F417FD02C01068CACFEF5F80911D0102
:10068000E817E8F2609121017091220117FF04C080
:1006900060911F017091200180E090E00E94B429D8
:1006A0002FEF33E040E050E00E94E329B901CA0196
:1006B00020911D0130E040E050E00E94E329C90193
:1006C0001F9108959B01281B390B50F0C901089513
:1006D000BC0180912101909122016817790718F4DB
:1006E000861B970B089580E090E008958CEA92E0D5
:1006F0000E94AA2A382F8DEA92E00E94AA2A20910D
:100700002501230F30912601381F209307013093D4
:10071000080183E0283E380720F0C901885E934035
:1007200002C080E090E062E370E00E94CF29683070
:1007300008F067E0ECEAF2E0E60FF11DE60FF11DCC
:10074000459155912591359162E3681B421B530BEE
:10075000649FC001659F900D1124499662E370E08B
:100760000E94CF29620F731F709366016093650129
:100770008EEA92E00E94AA2A992787FD90956091BF
:10078000250170912601860F971F90932001809379
:100790001F01909362018093610108950F9221E0FF
:1007A0008C32920710F48CE291E08C52914069E116
:1007B00070E00E94CF2999E16B3210F0982F6BE224
:1007C000981BEBE2F2E0E60FF11DE60FF11D9F939F
:1007D000CF010E94AA2A482F3196CF010E94AA2A4F
:1007E000582F3196CF010E94AA2A282F3196CF0187
:1007F0000E94AA2A382F6F91421B530B649FC0019D
:10080000659F900D11240C9669E170E00E94CF293C
:10081000620F731FCB010F900895CF93DF9324E1F4
:1008200030E0B9010E94CF29DC01EEEBF2E0E60FE7
:10083000F71FE60FF71FC591D591459155914C1BB8
:100840005D0B4A9FC0014B9F900D5A9F900D112444
:10085000B9010E94CF296C0F7D1FCB01DF91CF9191
:100860000895AEE1B0E0E7E3F4E00C94402A662E90
:10087000B82E860F898320910B01283059F52091DD
:100880006B0130916C0140916D0150916E0157FDEB
:1008900015C010917A0109C0CA01B9012AE0312DB1
:1008A000412D512D0E94E3291F5F173FACF391F4B6
:1008B000243160E036074105510518F48FEF9FEFB2
:1008C00041C1173F39F480E028178DE7380741050B
:1008D000410510F020E03DE72C8B3D8B26EDA22E4C
:1008E000E3E9F1E0E60DF11D859180608E87E3E993
:1008F000F1E0EB0DF11D859180608F87E0E9F1E07B
:10090000E60DF11D7590E0E9F1E0EB0DF11DC590EC
:1009100090EC692AB92A81E0E82EF12C012D112DE5
:100920008E831F82188619861A861B861C861D8652
:10093000188E198E1B8E1A8E0E94601B80E088B95B
:1009400060927C001DDE3F8537B975B874B852E0FF
:100950005A95F1F70000000014B815B8DD243E8563
:1009600037B975B874B860927C00A895A0927A00E7
:1009700080917A0086FDFCCF20907800309079003D
:10098000B0927C004C2DE2D020917800309179001B
:10099000288B398B3F8537B9C5B8C4B8A895B092B4
:1009A0007C00A0927A0080917A0086FDFCCF609155
:1009B00078007091790060927C00472DC7D04091FB
:1009C00078005091790014B8CB01820D931DE80E88
:1009D000F91E011D111DEA82FB820C831D8388898B
:1009E0009989840F951F2E813F8168857985280F0D
:1009F000391F611D711D2E833F836887798722E32C
:100A00002417150648F075B874B8C4DD14B815B8C5
:100A1000888D8395888F07C0483E73E0570718F08C
:100A20008A8D83958A8F888999892817190658F0A5
:100A30003E8537B9C5B8C4B8ADDD14B815B8898DD1
:100A40008395898F07C0883E73E0970718F08B8DD8
:100A500083958B8FD3945D2D5F3F49F05F3731F4E1
:100A60005C2D550FC50E572D550F750E78CF409044
:100A70002A0150902B01440C551C9201E4E0240DF6
:100A8000351DEA95E1F72901570168016E807F80E5
:100A90008884998420910B012830C1F46C897D8968
:100AA000812D912D65507040804090409B01AC019C
:100AB0000E94B4299B01AC0160E779E786E190E0F0
:100AC0000E94E329621A730A840A950AA614B704DD
:100AD000C804D90428F46A187B088C089D0803C050
:100AE000662477244301B20180E090E09301A401E1
:100AF0000E94B4299501A6010E94E32985E892E0AD
:100B00007981870F911D0E94AA2A682EC90160E190
:100B100070E00E94CF29260F371FC90168161906F9
:100B200018F4861991090EC08C5E9F4F86159105A9
:100B300038F48C899D89843981E1980708F073D64F
:100B4000812D912D6E96E2E10C945C2A1092810029
:100B50001092800010926F0010928B0010928A0009
:100B600057E056BB5FEF509385005093840055E0EB
:100B700050937B0056EB50937A0051E050938100E4
:100B800058E25A95F1F7000045B944B955E05A9535
:100B9000F1F7000014B815B81092810080917A0026
:100BA00084FFFCCF80937A000895CF93C82F1C1642
:100BB0001CF40FDCC150FBCFCF91089580912D0123
:100BC0008093000180919901809301010895909193
:100BD0002D019F5F90932D01682F81E0B6DBD1DC62
:100BE000A89508958F5CF3CF0895682F80E0ADDB62
:100BF000C8CC08951092990180E8F7DF10922D017A
:100C0000089581E08093990180ECEFDF10922D012F
:100C1000089560932D01813011F480EC01C080E8CB
:100C2000860FE3CF08956091000180910101F1CF1B
:100C3000089581E0DADFB0DCDDCF0895CF93DF9354
:100C4000EC018991882311F0C2DFFBCFDF91CF91B6
:100C50000895CF93DF93EC01CE010E94AA2A882346
:100C600019F0B5DF2196F8CFDF91CF9108950F935A
:100C70001F93CF93DF93EC0128968C010F5F1F4FDA
:100C80000E94AA2AA4DFC8010C171D07B1F7DF9143
:100C9000CF911F910F91089584E17FDC83E3A5DF5D
:100CA00082E3A3DF79DC80E2A0DF80E29EDF8AE2DC
:100CB0009CDF88E09ADF86E098DF82E096DFB9DF8C
:100CC00081E06BDC8CE091DF88E48FDF84E690E0EC
:100CD000CEDF80E58ADF8CE590E0C9DF88E585DF3F
:100CE0008CE690E0C4DF80E680DF84E590E0BFDF43
:100CF00088E67BDF8CE490E0BADF88E776DF8CE380
:100D000090E0B5DF80E771DF84E390E0B0DF80E45E
:100D10006CDF84E490E0ABCF089590912D0180E1E9
:100D2000891B43CF0895CF93C82FF7DF8091990196
:100D30008F5F80939901823030F081E08093990138
:100D40008093300102C0109230016C2F8091990184
:100D500060DFCF910895E7DF37C108954BDFDDDF16
:100D600049CF08954EDFD9DF4CCF08950F9389E71F
:100D700091E06FDF409179014D3F64F4609167012C
:100D8000709168018091690190916A0103E026E405
:100D900019D002C08FE31BDF0F91089590910A01D3
:100DA0009F70923071F4D7DF84E790E052DFE091DA
:100DB0002E01F0912F0122E047E06FEF84819581B1
:100DC000B3C00895AEE0B0E0E8EEF6E00C94402A3F
:100DD000242E322E6B017C01102F1F7080E389833B
:100DE0008A838B838C838D838E83F7FE0AC0F3DA2C
:100DF000F094E094D094C094C11CD11CE11CF11C6F
:100E000004C005FF02C08BE2E2DE133029F014308B
:100E100031F084E690E005C088EE93E002C080E106
:100E200097E22C01612C712C9AE0892E912CA12C37
:100E3000B12CC414D504E604F70470F0C701B60160
:100E40006B5F7F4F8F4F9F4FA50194010E94E32955
:100E500069017A012394EDCF86E0821963E00E9454
:100E6000C329792E4E0187E0880E911C4AE0B40117
:100E7000C6010E94812AF40101900020E9F7319710
:100E80007F01E818F90881E1820D9BEA899F812D95
:100E90001124869590E0845D9F4F0E94AA2AD82E47
:100EA00004FF04C0E11610F41E1901C010E0BE2CAE
:100EB000B718B10E1B1424F08EE289DE172D1E190F
:100EC000711002C088EFB82EC12C012F10E048012C
:100ED0008E0C911CEB2C0B2C000CFF088C2D90E041
:100EE00088159905ACF4FC013696E01BF10B81E006
:100EF00090E08C0F9D1FE80FF91F808168DEC3947E
:100F00008C2D90E08E159F0549F78EE260DEE6CFCE
:100F1000DD2011F08D2D5BDE332011F0832D57DEA7
:100F20002E96E2E10C945C2A0F93362FBC0180E0F0
:100F300090E0022F242F432F45DF0F9108950F9348
:100F4000062FBC0180E090E026E54DEF3BDF0F91DE
:100F50000895EF92FF920F931F93CF93DF93F82E94
:100F6000E92EC5E64F9B05C0CF2DDE2D15E500E02F
:100F700018C081E012DBC150A9F7F6CF0DDB110FCD
:100F80004F9B1F5F1F731F3379F4011103C0CF2DD7
:100F9000DE2D04E00F5F083C88F4A8951C161D06A2
:100FA00044F0D7FFEBCF0AC01111F7CF0023A9F30C
:100FB00005C02A97B1F7CFEFDFEFF3CF802FCDB782
:100FC000DEB7E6E00C94682ACF93F8DDC82F809155
:100FD00030018823C1F0813049F4C13039F46FE029
:100FE00018DE8BE2F4DD6FE081E013DE80E49FE148
:100FF000B0DFC13039F480913001813019F460E004
:1010000008DE8BDE10DECF9108951895189530918B
:101010000901A0912E01B0912F01EDE7F1E080E0F0
:1010200090E08317B0F441911C962C911C974217C5
:1010300019F04581241302C00196F3CFFC01EE0F95
:10104000FF1FE757FE4F20813181293E334008F4CE
:10105000089584E1089510920B01109209011092F5
:1010600060011092400110920A0110922C0110921E
:101070006301EBE4F1E0108211821282E7E6F1E015
:10108000108A82E0818B10921101178616861482D5
:1010900015821682178281EF838B08955E985ADA43
:1010A00080E090E056CF08951F93CF93DF93162FE3
:1010B00017B818B8E82FF0E0E057FE4F949195B9B3
:1010C000262F281BE20FF11D27FDFA95E491E92B4D
:1010D000E4B99ADAEC01812F97DAAC012091210171
:1010E0003091220136952795C9010397BE01625EB2
:1010F0007F4F8617970778F4255E3F4FC217D307B7
:1011000050F4BA01625E7F4F8617970720F481E0A2
:101110004217530708F080E014B8DF91CF911F9178
:101120000895CF9361E080E0BFDFC82F62E080E0E8
:10113000BBDFC80F62E081E0B7DF8C0FCF9108956D
:10114000AEE0B0E0E6EAF8E00C94402AB82E109247
:101150000B01807F29F06DDD83EF90E07ADD5FC3C6
:10116000E0DF833009F05BC364DD8DEB91E071DD7E
:1011700048DD8FE32CDD80ED97E0EBDE8B3058F31C
:1011800040DD0E94441F8FEA90E063DD60E087E865
:1011900092E00E94B72A60E088E892E00E94B72AB5
:1011A00060E086E892E00E94B72A60E082E059DBC6
:1011B0006C019A83898361E082E053DB7C019C832C
:1011C0008B8360E081E04DDB8C019E838D8323E087
:1011D00040E26EEFC601A8DE23E040E26EEFC701F9
:1011E000A3DE23E047E06EEFC8019EDE2AE5C216CB
:1011F000D10424F084E190E09A838983698187E8AF
:1012000092E00E94B72A8AE5E816F10424F084E10E
:1012100090E09C838B836B8188E892E00E94B72AE0
:101220000A35110524F084E190E09E838D836D8161
:1012300086E892E00E94B72A82E080933001C4DE03
:10124000E1E0BE122DC1EE24E394F12C78EB872E61
:1012500072ED972E77E4A72EB12C02E0E8E0DE2EA7
:10126000F0E23F2EC12C1E2D52E2252E7BDD76DDD5
:1012700084E5ADDCC701A2D8ACD81130B1F482EE60
:1012800090E0E7DC64E0809125019091260157DE33
:10129000B8DC8DED90E0DDDC809165019091660118
:1012A0008DD88EEB80931D01E1C0123079F520912D
:1012B000210130912201A8E5BBE10E94212A24EC02
:1012C00036E340E050E00E94052A29013A0181E01E
:1012D00085B9F5E0F4B980E08CD9841995099A8331
:1012E000898381E184B980E084D9841995099C833C
:1012F0008B8384E085B984E184B981E07AD984194B
:1013000095099E838D8387EC90E09EC0133041F554
:1013100005B92AE024B980E06CD9209121013091EF
:1013200022013695279538872F83821B930B9A834A
:10133000898324B880E05DD92F813885821B930B87
:101340009C838B83D5B888E284B981E052D92F8100
:101350003885821B930B9E838D8389EB90E074C04C
:10136000143039F48DEA91E074DCDBDE811154C273
:101370006CC0153099F415B804B980E03AD99A8355
:101380008983D4B881E035D99C838B8334B882E0DB
:1013900030D99E838D8389ED90E056C0163039F5A3
:1013A00004B905B980E025D92091210130912201AD
:1013B000821B930B9A838983D4B8D5B881E019D95D
:1013C0002091210130912201821B930B9C838B83FE
:1013D00034B835B882E00DD9209121013091220135
:1013E000821B930B9E838D8385ED90E02DC017307B
:1013F00061F52091210130912201A8E5BBE10E9415
:10140000212AA50194010E94E32929013A0105B985
:10141000E3E0E4B980E0EDD8841995099A838983E3
:10142000D5B8FCE0F4B981E0E4D8841995099C832F
:101430008B8335B820E324B982E0DBD88419950981
:101440009E838D8383EB90E004DCDBDB89819A81D2
:101450000E94D3010E94E9018B819C810E94D301EB
:101460000E94E9018D819E810E94D30117B818B8AE
:1014700014B815B888EE93E06CDD143011F08B30A1
:1014800020F4C39484E0C812F1CE88EE93E061DDCD
:10149000EFEFEE1AFE0AF8E0EF16F10409F0E2CEE3
:1014A00018E73FDE81117EC0C4DB88EA90E0D1DB23
:1014B00023E047E06FEF809123019091240134DD18
:1014C000A0DB81EA90E0C5DB23E047E06FEF80918D
:1014D0002A0190912B0128DD82E08093300174DD98
:1014E00010920B01A6DB8DE990E0B3DB60E082E0B7
:1014F0000E94361C40906F01509070016090710105
:10150000709072015C864B8661E082E00E94361C1E
:1015100080906F0190907001A0907101B090720165
:101520009E868D8660E081E00E94361C00916F01EE
:10153000109170011E830D8362E080E00E94361CD2
:1015400080916F01909170019C838B8362E081E0B8
:101550000E94361C80916F01909170019A87898753
:1015600061E080E00E94361CE0906F01F090700115
:10157000FA82E982C2010E94E801C4010E94E801E6
:10158000B801110F880B990B03E026E444EF1ADC35
:1015900080912901823089F422E0E20EF11CF88664
:1015A000EF8211C0DFDB8DEA91E053DB84E60E941D
:1015B000CD02115009F075CF77CFF886EF821092E7
:1015C00029018CE012DB8E010F5F1F4F6E018FE04F
:1015D000C80ED11CF801819191910A97853B910524
:1015E000C8F4CE16DF06B9F745EAE42E42E0F42E41
:1015F000F80160810E5F1F4F6E5EC7010E94B72A1F
:10160000FFEFEF1AFF0AC016D10691F7FADA8BE95D
:1016100091E01FDB82E080933001D6DC0E945B26E4
:1016200008DB80E0DFDA81E591E013DB82E0DADAE3
:1016300084E290E00EDB20E4F22E10E03AE0832E0C
:10164000912CA12CB12C07DD10920B0160E082E0FF
:101650000E94361C00917901209167013091680148
:101660004091690150916A01073F44F40F5FCA013C
:10167000B901A50194010E94E329F6CF00937901F5
:1016800020936701309368014093690150936A0188
:10169000073F09F096C0DA01C90180569109A109F6
:1016A000B10980399545A105B10508F08AC060915E
:1016B0007B0170917C01CB018B569F4F8B32914007
:1016C00008F07FC01F5F153008F47CC08CEA92E000
:1016D0000E94C52AAEDA8DE190E0BBDA80917B01F1
:1016E00090917C010E94D30101D818B881E087B99C
:1016F00080E284B982E00E940403853D9340D4F7E0
:1017000014B81092200110921F0182E00E9404037D
:101710008C018091610190916201909320018093EE
:101720001F0182E00E9404037C01EE0CFF1C10925A
:10173000200110921F0182E00E940403A090610129
:10174000B0906201B0922001A0921F01800F911F02
:101750008C010E191F0955DA86E190E07ADA8EEADB
:1017600092E00E94AA2AD82E9501D8010E94302A20
:1017700097010F2C000C440B550B0E94052A13E017
:101780001D0D120F612F8EEA92E00E94B72A812F61
:10179000012E000C990B0E94D3010E94760382E077
:1017A0008093300111DC109229018CE01EDA85EA69
:1017B00092E00E94AA2A682F88EA92E00E94B72A43
:1017C00016C010E01EDA6091670170916801809187
:1017D000690190916A0104E026E440917901F2DA0E
:1017E0009CDA88E20E94CD02FA94F1102CCF89E1B4
:1017F00080931D0180E00E946E291BDA83EF90E048
:1018000028DAFFD984EA91E024DA10920B0182E011
:1018100080933001D9DB03C082E0C82E16CE2E960D
:10182000E2E10C945C2A8091290181110DC085EAC6
:1018300092E00E94AA2A61E0680F88EA92E00E9482
:10184000B72A81E0809329010895EF92FF920F93C8
:101850001F93CF93DF93D62FE82FF0E0ED56FE4F86
:10186000E491E8B9E7B915B8E62FF0E0E057FE4F8C
:10187000E491E4B988E8E82E83E1F82ECE2FCC0F6E
:101880008D2F0E94F9028C01C4B98E159F0510F4AA
:101890007801F6CF892BC9F08FE291E0DAD9D8012F
:1018A00020EA36E841E050E00E94362A28E937EB8A
:1018B00040E050E00E94E329DA01C90122E041E45E
:1018C00067EF32DB17B818B814B8CDB7DEB7E6E06B
:1018D0000C94682AA0E0B0E0E0E7FCE00C94402A19
:1018E00080E48AB98BB9C6E8C0937A001092C1002F
:1018F0000E94AC02D4B784B7877F84BF0FB6F89438
:10190000A8958091600088618093600010926000CB
:101910000FBEC093640088E380937E001092B000F5
:1019200087E08093B1007894B7D9D3FD1FC580E1DB
:1019300085BFC0E04F9905C00E94CC02CF5FCC3379
:10194000C9F78FE59DE69093040180930301CF31A1
:1019500030F080E69DE6909304018093030110929D
:101960001E010E94441F9FE088E10FB6F894A895DD
:10197000809360000FBE9093600032E0932E40E1B0
:10198000842E50E1752E61E5E62E61E0F62E7DE0B5
:10199000272EE0EF3E2EF3E36F2EA1E25A2E49D917
:1019A00017B859DB0E94441F25D9F2D480912C012D
:1019B000882369F026D986E491E04BD963E08091D1
:1019C000210190912201BBDA88EC0E94CD024F994F
:1019D00013C0C8D989E291E03CD917B883E00E94CE
:1019E000000363E04AE09C01429FC001439F900DC9
:1019F0001124A5DA8CE3E9CF04D90E94601B809101
:101A00000B01893009F515D98BE491E022D9F9D879
:101A100063E0809145019091460191DA0E94E901CD
:101A200063E0809147019091480189DA0E94E901C1
:101A300063E08091490190914A0181DA8AEC0E9429
:101A4000CD0281E17DDB1AC48CE0CFD888EA92E038
:101A50000E94AA2AC82F85EA92E00E94AA2AC81BDF
:101A6000C0932901CC2311F08EE0BFD881E068DB60
:101A700079D982E292E0EDD842E061E080E0FCD4E6
:101A800042E060E081E0F8D441E062E080E0F4D43C
:101A900041E060E082E0F0D440E062E081E0ECD43C
:101AA00040E061E082E0E8D480910B0181110EC03A
:101AB0000E94601B60E082E00E94361C61E082E0D0
:101AC0000E94361C60E081E00E94361CB2D881E39F
:101AD00091E090932F0180932E0180910B0186302D
:101AE00039F489EF91E0B5D841E467E483E408C0B4
:101AF000873099F482E092E0ACD842E367E481E376
:101B00000E94EF017ED88FE591E0A3D862E080913A
:101B100035019091360113DAB1C3883081F42091F8
:101B200077018091780190E0820F911D029719F45E
:101B30000E94C021AEC380E00E94CB209FC38330AF
:101B400009F0C7C080910901813009F040C080E0F0
:101B50000E947B0260917D018091830176DE80E7A7
:101B60000E94530240E060917D01809183010E94B8
:101B70007E2560936701709368018093690190935B
:101B80006A0180E0E8D860916701709168018091F6
:101B9000690190916A0102E026E442EF13D90E94A4
:101BA000EB0141E060917D01809183010E947E25DF
:101BB00060936701709368018093690190936A0153
:101BC00026E442EFFFD88BE191E043D8AAC28230ED
:101BD00061F582E30E94E7058BE091E03AD89091AD
:101BE0007D0130917E01931307C080E00E9497022F
:101BF00081E00E948E020CC02091830180918401BB
:101C0000281308C080E00E94870281E00E949E02A3
:101C100081E0A6CF321304C081E08093020135C079
:101C200098133EC07092020130C08330C9F56092B3
:101C300002018091830190917E01891303C021E00C
:101C40002093020140917D0130918401431302C031
:101C50007092020120917F01821302C090920201D2
:101C600080918501481303C040E240930201321382
:101C70000FC022E120930201981761F083E30E94D4
:101C8000E7058BE091E00E9429060E94690249C2A3
:101C9000981302C05092020180910201823270F3C7
:101CA00088E092E00E94290680EF91E00E942906D8
:101CB0000E94010680910901805D0E94E7058AE289
:101CC0000E94E70585E291E00E94290686ED91E0F9
:101CD000D0C2843009F049C180916001882309F4A1
:101CE0005EC080914001882309F459C060913D0194
:101CF00080913F010E94361CA0906701B09068015E
:101D0000C0906901D0906A01C091790160915F0132
:101D100080915D010E94361C8091310190913201C9
:101D2000A0913301B0913401409151015091520181
:101D30006091530170915401843F21E09207A10505
:101D4000B10538F4443F31E053076105710508F0EF
:101D5000C0EF443F51406105710538F4843F914024
:101D6000A105B10510F03092790180917901C81375
:101D70000EC08091670190916801A0916901B091B6
:101D80006A01A816B906CA06DB0618F005C0C8170E
:101D90001CF420920A0103C08CE080930A01809118
:101DA0006001882361F080914001882341F04F99C0
:101DB00006C090910A0181E0892780930A018091F1
:101DC0000A018C3051F482E791E00E94290680914B
:101DD0006001882389F080E70DC0F0922F01E09226
:101DE0002E018EE691E00E94290680914001882311
:101DF00019F08EE60E94E7050E94E90108D9C82F74
:101E00008530E8F480910A018C3041F481E0209122
:101E10003E0190913F01921748F007C081E0209168
:101E20005E0190915F01291708F080E0882319F086
:101E300085E291E002C081E291E00E94290643E43C
:101E400062E485E40E94EF010E9401068CE791E0C4
:101E50000E942906E0912E01F0912F01608171818D
:101E60008281938103E020E04EEF0E94E2060E940F
:101E7000E90189E40E94E705E0912E01F0912F012C
:101E8000868197818031974270F085E60E94E70550
:101E9000E0912E01F0912F01868197818051974228
:101EA0009783868303C083E60E94E7050E94ED01C5
:101EB000E0912E01F0912F0122E041E46AEF86814A
:101EC000978132D880E00E94AB0683E691E00E94C1
:101ED0002906E0912E01F0912F0163E08481958124
:101EE0002ED8E0912E01F0912F0180859185892BCC
:101EF00089F080E00E94AB068DEE90E00E942906FA
:101F0000E0912E01F0912F0123E041E46AEF8085FA
:101F100091850AD8E0912E01F0912F018285938559
:101F2000892B91F080E00E94AB0687EE90E00E9442
:101F30002906E0912E01F0912F0123E041E46AEFA0
:101F4000828593850E949407C53008F097C180E090
:101F50000E94AB068C2F0E947B028FE591E00E94CD
:101F600029068C2F0E94450289C1853009F0F1C0F5
:101F700080910A0184FF08C080E50E94E705F09285
:101F80002F01E0922E0103C08EE40E94E7050E941B
:101F9000EB0180910A01C82FCF70C43041F485E86D
:101FA00091E00E9429064FE367E48FE311C085FFAB
:101FB00002C084E401C085E40E94E705C33009F053
:101FC000CDC18FE791E00E94290643E467E485E4F0
:101FD0000E94EF0180910A0185FD18C00E94010650
:101FE000E0912E01F0912F01668584850E94361CB8
:101FF0000E94B6068AE591E00E942906E0912E0132
:10200000F0912F0162E0828593856EC08F708430DD
:1020100071F080E00E949306E0912E01F0912F0173
:10202000668584850E94361C0E94B6061AC0E0911F
:102030002E01F0912F0184819581892B91F080E010
:102040000E94930680E090E00E942906E0912E0114
:10205000F0912F0122E041E46AEF848195810E9492
:10206000940780E00E94AB0689E40E94E7050E9485
:10207000ED01E0912E01F0912F0122E041E46AEFA1
:10208000868197810E94940785E591E00E94290648
:10209000E0912E01F0912F0162E0828593850E94EC
:1020A0009F07E0912E01F0912F0180859185803C62
:1020B0009241E0F480E00E94AB0689E40E94E705CB
:1020C0000E94ED0122E041E46BEF80E090E00E948D
:1020D000940785E591E00E942906E0912E01F09198
:1020E0002F0162E0808591850E949F0780E00E9419
:1020F000CE06C43009F4C2C0C0E080910901C817FF
:1021000008F0BCC080E00E94AB068C2F0E947B02CE
:102110008FE591E00E9429068C2F0E944502CF5F37
:10212000ECCF80916301882309F4A8C087B880911F
:102130000301909104010E94A90717B80E94190693
:1021400080910901805D0E94E7058BE091E00E948B
:102150002906D0916301DD2309F47FC0D130A1F4B9
:1021600080914E010E94160220914E01213039F4D7
:1021700020910901211103C00E947E218AC040E004
:10218000692F0E940F207AC090914E0180914F01DB
:1021900034E0839FD0011124A656BE4F44E0949FA3
:1021A000F0011124E656FE4F0D911D912D913C91A9
:1021B0004081518162817381401751076207730723
:1021C00010F4C82F01C0C92FD23021F4890FC3E009
:1021D000C81B1CC08091500194E0899FD00111243C
:1021E000A656BE4F24E0C29FF0011124E656FE4FD2
:1021F0000D911D912D913C9140815181628173819E
:10220000401751076207730708F4C82FDC2FD695D3
:10221000092D0C1BC11102C011E001C012E08D2F6D
:102220000E94F20586E091E00E942906802F0E941C
:10223000F20586E091E00E942906812F0E94F205B6
:1022400080E00E94930681E0C11180E00E9420029C
:10225000892D8D1B0E94200211C080EE91E00E940A
:1022600029060E9401068DE092E00E94290688E07E
:1022700092E00E94290680E49FE104C0809103015E
:102280009091040187B84F9BFECF0E94A90781114E
:1022900086CB8CE00E94F50580912901882309F402
:1022A0005AC0D2E000E010E080E090E020E1422E51
:1022B000FC01E00FF11FEA56FE4FC491C03211F04D
:1022C000CE3F09F4482E01968131910589F7DD232F
:1022D00041F03D2F3170B32ED0FD0AC00E94190687
:1022E00007C080E197E20E94A907882391F32FC0DD
:1022F00060E08B2D0E940906A895DF5FD170A12CAC
:10230000B12CA414B0F4F801EA0DFB1DEA56FE4FFF
:10231000C491CC23E1F0CF3F19F40E94E90105C03C
:10232000CE3F19F08C2F0E94E7054FEFA41AB40A94
:10233000E8CFCC2361F0040D111DF801EA56FE4FE1
:10234000E491E03209F0B0CF0F5F1F4FADCF80E1D5
:1023500097E20E94A9070E944E0821CB8AE891E0EB
:102360000E94290644E467E483E532CE0E94FA0520
:102370008DEC91E00E9429068BEC0E94CD020E9418
:102380004E0880E090E0CDB7DEB7E2E10C945C2A25
:102390000F931F93CF93DF9385E00E94040385E0A2
:1023A0000E9400038C01EC01CC0FDD1FCC0FDD1F60
:1023B000C15DDE4F10922701C43883E0D80750F486
:1023C0008FE891E00E9429060E948D0681E08093AB
:1023D000270126C08EE991E00E94290662E0CE0125
:1023E0000E949F070E94E9010A3F86E0180790F4C7
:1023F0000333164060F486E192E00E9429060E94B1
:102400008D068DEC0E94CD020E944E0809C08DE120
:1024100092E002C08BE991E00E9429060E948D069D
:10242000DF91CF911F910F910895CF93DF93DC013E
:102430009C01261B370BE0E090E0B901690F711D8C
:10244000672F7727920F260F371FBA016E0F711D66
:10245000672F7727E40FEB01CC0FDD1F4C0F5D1FBB
:102460006B3E28F4A217B30740F7CA0102C080E010
:1024700090E0DF91CF910895A7E1B0E0E2E4F2E1CE
:102480000C94402A8E8B162F042FA895E62FF0E08F
:10249000E057FE4F24912B87220F298B33963491DE
:1024A0003A83E42FF0E0E057FE4F44914B8333969C
:1024B000F490E82FF0E0E057FE4F84918983880F75
:1024C0008E87339694919F8B45B96B84642A64B848
:1024D00097B998B9862F0E9400039D878C87EB855A
:1024E000E4B9812F0E9400031C0114B80E94B502B8
:1024F00015B864B8812F0E9400036C857D850E9409
:1025000062034C01FA81F7B918B82B813981232B6A
:102510002C8325B924B98E890E9400030E94680388
:102520005C0115B80E94B502498145B98E890E94A7
:1025300000030E9468036C01898184B98E890E941E
:1025400000030E946803782EE92EB601C5010E949F
:1025500062038032E1E09E0730F4F0E28F16F1E092
:102560009F0608F48AC58C0C9D1C2C853D85820F26
:10257000931F8816990620F4DD86CC86272C3E2CE6
:102580002091400130916001822F90E0830F911DD6
:1025900002974CF0213009F070C590913D01809177
:1025A0005D0198136AC5EB80EE0C39813E293A87AC
:1025B0008C859D858437910508F48BC1880F991F00
:1025C00044962816390608F084C19F8997B998B9AE
:1025D0008B858E2984B9812F0E94FD026C01802F8A
:1025E0000E9404035C01E5B8812F0E94FD02960160
:1025F000295A3D4F18B82817390708F0AAC0EA81B0
:10260000E7B9FA85F4B9F5B9802F0E94FD02883444
:102610009F4028F085E080930B0182E204C085E0B2
:1026200080930B0184E280930A01D0923601C0921C
:102630003501B501C6010E946D0390933C01809362
:102640003B019601A0E1B7E20E94212A20910501F9
:102650003091060140E050E00E94E32930933801B8
:102660002093370189898E2984B915B83F8937B9F4
:1026700038B9802F0E9404036C01812F0E94FD0253
:10268000B6010E946D039C0190933A018093390139
:1026900090910A019F70943071F5409137015091EB
:1026A000380160913B0170913C01C901BEDE009789
:1026B000F1F0E4B84F898A81482B47B9812F0E94F5
:1026C000FD026C0117B89C01A0E1B7E20E94212A2B
:1026D00020912A0130912B0140E050E00E94E32933
:1026E000A901B6018091390190913A019EDE909343
:1026F00036018093350180910A018F70843009F48E
:10270000B4C418B89A81F92AF7B8E981E4B9FC8110
:10271000F5B98E890E9400036C010E9468037C0158
:10272000812F0E940403A0900C01B0900D01BC0108
:10273000C6010E946D039501DC010E94212A9701C8
:1027400040E050E00E94E3293093360120933501A8
:102750008CC42A8127B93A8534B935B98E890E944B
:10276000FD026C01802F0E9404035C01498145B980
:102770008E890E94FD02895A9D4F8C159D0508F097
:102780007CC48F8988B987B9802F0E94FD02813D62
:10279000934028F485E080930B0182E304C085E038
:1027A00080930B0184E380930A01B601C5010E9466
:1027B0006D0390935C0180935B01C6010E946803E6
:1027C0009C01A0E1B7E20E94212A20910C013091E6
:1027D0000D0140E050E00E94E3293093580120931E
:1027E000570118B8FA81F7B98E858E2984B985B951
:1027F0008E890E9404036C01802F0E94FD02B601A5
:102800000E946D039C0190935A018093590190910D
:102810000A019F70943091F54091570150915801F1
:1028200060915B0170915C01C901FFDD009711F1BE
:10283000E5B8E4B82F8928B92A80222A27B88E89DA
:102840000E94FD020E9468036C0117B89C01A0E180
:10285000B7E20E94212A209123013091240140E017
:1028600050E00E94E329A901B6018091590190919D
:102870005A01DBDD909356018093550180910A0146
:102880008F70843009F4CFC13F893F2938B937B9F7
:1028900015B84C8144B98E890E9400035C01812FD8
:1028A0000E9404037C01C0900501D0900601BC0188
:1028B000C5010E946D039601DC010E94212A970147
:1028C00040E050E00E94E3293093560120935501E7
:1028D000AAC118B88A8187B9998195B9EA85E4B9FE
:1028E0008E890E940003988B8F870E9468039F83C4
:1028F0008E83802F0E940403998788872101F4E644
:102900004F0E511C2E813F81B10142165306D8F45F
:10291000C9010E946D036C0120910C0130910D01E1
:1029200040E050E060E871EA83E09CE10E94E32926
:10293000D6010E94362AE885F9854F01A12CB12CD9
:10294000A501940123C08E819F810E946D036C01BB
:10295000FC81F4B98E890E940003988B8F870E94B6
:1029600068039F838E83802F0E9404039987888742
:10297000BC01C6010E946D039C01A4E6B0E00E9468
:10298000212AE885F9859F0140E050E00E94E32973
:1029900049015A0114B815B8FF89F8B9F7B981E0AF
:1029A0000E94CD0264B8812F0E9400037B847E28A0
:1029B0008F359D4008F43DC174B8812F0E94FD02FF
:1029C0006C01802F0E9404039B8B8A8B8E890E944E
:1029D00004039D8B8C8B8A899B89813D974008F4E9
:1029E000B1C084E080930B018DE080930A017601F1
:1029F0002C143D0410F4E218F308409005015090A7
:102A00000601612C712C60E871EA83E09CE1A3016E
:102A100092010E94E329D7010E94362AEA89FB89A4
:102A20009F0140E050E00E94E329809160018823EB
:102A300069F08091510190915201A0915301B091A0
:102A4000540182179307A407B50708F52093510195
:102A50003093520140935301509354019601A0E1E9
:102A6000B7E20E94212AA30192010E94E329309338
:102A70005801209357016A897B898C899D890E941E
:102A80006D03909356018093550181E001C080E071
:102A90004091510150915201609153017091540144
:102AA000481559056A057B0538F5809251019092C9
:102AB0005201A0925301B0925401688579858F85A7
:102AC00098890E946D0390935601809355012E8141
:102AD0003F81A0E1B7E20E94212A20910C013091B0
:102AE0000D0140E050E00E94E329205F384D309313
:102AF00058012093570103C0882309F499C3C0905B
:102B00000501D0900601E12CF12C9101A0E1B7E282
:102B10000E94212AA70196010E94E32930935A01BD
:102B2000209359012C853D85A0E1B7E20E94212A1E
:102B3000A70196010E94E32930935C0120935B0179
:102B400081E076C3F1E62F16310408F072C021ED62
:102B5000C21627E0D20608F46CC085E080930B0112
:102B600082E180930A01C60186509F4FEC89FD895E
:102B70008E179F0720F483E180930A0116C0E0902E
:102B80000501F0900601B6018C899D890E946D03B4
:102B90009701DC010E94212A960140E050E00E944A
:102BA000E3293093560120935501FA81F7702F2EB7
:102BB000802F806480937C002BE02983CC24C394F5
:102BC000D12CEE24EA94A3E0FA2EA89561E08B8143
:102BD00060D574B886B18221E9F33B8534B9809120
:102BE0007A00806480937A0080917A0086FDFCCF21
:102BF0008091780090917900F701E81BF90BCE0ED7
:102C0000DF1EF981F150F983F111DFCFC601880F82
:102C1000991F880F991F69E070E00E94CF29709377
:102C20005C0160935B01809160018F5F8093600124
:102C300087CF74B8E5B8812F0E9400035C01802F14
:102C40000E9404039F838E830E9468037C014A14C0
:102C50005B04A8F4B101C5010E946D036C012091D1
:102C600005013091060140E050E060E871EA83E040
:102C70009CE10E94E329D6010E94362A1DC064B857
:102C80002B8125B9812F0E9400035C01802F0E94B7
:102C900004039F838E830E9468037C01C5012A146C
:102CA0003B0410F482199309B7010E946D039C0143
:102CB000A4E6B0E00E94212A970140E050E00E9483
:102CC000E32929013A013A8137B918B84C8144B94E
:102CD00045B98E890E9400036C01802F0E94040375
:102CE0004C01812F0E9404037C0180E3C81681E11E
:102CF000D80608F0C0C1998195B98E890E94000359
:102D000099878887E981E4B98E890E940003988BAE
:102D10008F8715B881E00E94CD02F981F5B98E89BF
:102D20000E9400032F8538892034364008F05FC0A8
:102D30008133914108F45BC0C6018A569F4F2885B4
:102D400039852817390708F052C086E080930B01B7
:102D5000809140018F5F80934001B701C4010E94C0
:102D60006D039093360180933501B701C6010E942F
:102D70006D0390933C0180933B0114B815B83A81E0
:102D800038B981E00E94CD02498144B98E890E9400
:102D90000003853F910508F05AC28C8184B9802FC9
:102DA0000E940003813D934008F451C28E890E9425
:102DB00004038D3D924008F44AC2298124B98E89CA
:102DC0000E9400038D3D924008F441C2498145B9FB
:102DD00081E00E94CD0215B88E890E940003853FD4
:102DE000910508F034C287E080930B0130C28A81DC
:102DF00087B99B8194B995B981E00E94CD02EA859B
:102E0000E4B9E5B98E890E9400036C010E94680351
:102E10007C01802F0E9404039D838C830E946803A1
:102E200099878887812F0E9404034C012885398562
:102E30002E3F394008F4B0C084E080930B018CE051
:102E400080930A01B101C7010E946D036C012091BA
:102E50000C0130910D0140E050E060E871EA83E040
:102E60009CE10E94E329D6010E94362AE885F98573
:102E70009F0140E050E00E94E329809140018823B7
:102E800069F08091310190913201A0913301B091AC
:102E9000340182179307A407B50720F52093310169
:102EA000309332014093330150933401B4018C814B
:102EB0009D810E946D0390933601809335019701A7
:102EC000A0E1B7E20E94212A20910C0130910D016E
:102ED00040E050E00E94E32930933801209337010D
:102EE00081E001C080E04091310150913201609158
:102EF000330170913401441555056605770528F5B1
:102F0000409231015092320160923301709234014B
:102F1000B5018E819F810E946D039093360180934D
:102F200035019501A0E1B7E20E94212A2091050117
:102F30003091060140E050E00E94E329205F384DC7
:102F4000309338012093370103C0882309F480C1EE
:102F50009101A0E1B7E20E94212A20910501309160
:102F6000060140E050E00E94E32930933A012093AB
:102F700039012C853D85A0E1B7E20E94212A2091EC
:102F80000C0130910D0140E050E00E94E3293093A4
:102F90003C0120933B015BC1F1E62F16310408F0A0
:102FA0006AC029E4E2162DE0F20608F464C085E068
:102FB00080930B0182E080930A01C40186509F4FE9
:102FC0008C159D0520F483E080930A0115C0A09024
:102FD0000C01B0900D01B401C6010E946D03950172
:102FE000DC010E94212A970140E050E00E94E32981
:102FF00030933601209335013F893770D32E802FCF
:10300000806480937C004BE04A83EE24E394F12CAF
:10301000A89560E08B813DD38A8584B985B986B156
:103020008D21E9F7998194B980917A008064809329
:103030007A0080917A0086FDFCCF80917800909193
:103040007900E80EF91EEA81E150EA83E111E0CF50
:10305000C701880F991F880F991F69E070E00E94CF
:10306000CF2970933C0160933B01809140018F5FB9
:1030700080934001ECC017B818B814B815B817B849
:10308000F7EC2F16F1E03F0608F4C4C018B82E85FF
:1030900024B908ECEA803F89E32AE7B881E00E947E
:1030A000CD024A8147B98E890E940403429710F0ED
:1030B000015099F78E8584B985B961E08B81E9D299
:1030C0008E890E9400034C01998994B915B8EF8943
:1030D000E7B9E8B960E08B81DCD2812F0E94000360
:1030E0000E9468036C01FB85F4B9812F0E940403E0
:1030F0007C018E890E940003B7010E946D037C0150
:10310000812F0E9404035C018E890E940003B50197
:103110000E946D0397012C5E3F4F2817390708F472
:103120007CC018B82A8127B9398134B935B961E032
:103130008B81AFD2812F0E9404035C018E890E9493
:103140000003B5010E946D035C01E816F90650F416
:103150004E8544B945B98E890E9400039C016401E3
:1031600075010FC0898984B915B89F8997B998B935
:1031700060E08B818ED2812F0E9400030E94680341
:103180009C01E8EEEE16E3E0FE0630F4C70164E6CB
:1031900070E00E94CF2906C0B70154E0769567958C
:1031A0005A95E1F7C701875991098938914190F5FE
:1031B0002E153F0578F5C60143E0969587954A950B
:1031C000E1F7893C910510F088EC90E08C0D9D1D95
:1031D0008E159F05F8F46C157D05E0F480910B01C8
:1031E000833018F483E080930B0120910901822F32
:1031F00090E0FC01E358FE4F3E8930831683880F30
:10320000991FFC01E757FE4FF182E0822F5F209368
:10321000090103C0612F8E892AD017B818B814B8D5
:1032200015B88EE20E94E7056796E2E10C945C2AED
:10323000909160019F5F90936001882371F30093E8
:103240005D0110935E014E8940935F01E6CF81E0FE
:10325000909140019F5F909340018823F1F2009389
:103260003D018E8980933E0110933F01D6CFA0E0AF
:10327000B0E0EDE3F9E10C94422AA895462F50E026
:10328000FA01E057FE4F949033969491A82FB0E046
:10329000FD01E057FE4FE4903396F4907091600189
:1032A0002091400130E0270F311D232B09F0ECC1A4
:1032B000A89520910F0130911001220F331F220F8A
:1032C000331F30932201209321012091610130911D
:1032D0006201220F331F220F331F309320012093EE
:1032E0001F012EEB20931D01C0910901EDE7F1E0D4
:1032F00070E04A0F5B1F7C1759F02191A58130E0E7
:103300002A0F311D2417350709F451C07F5FF3CF11
:10331000D62FC82F18B897B9E4B8E5B8B8E1BB2ED6
:10332000C12CD12C8D2F0E940003782E692E8C2F5A
:103330000E9404038C018C199D0997FF03C091958D
:1033400081959109039734F0A895BA946801B1105A
:10335000E9CF2DC0EE0C15B8E4B88C2F0E94000305
:103360008135910520F5E5B88C2F0E9400036C0192
:10337000F7B8F8B815B894B8A8E18A2EA12CB12CEA
:103380008C2F0E940003582E492E8D2F0E9404037B
:103390007C018A199B0997FF03C09195819591093A
:1033A0000397CCF0A8958A9457018110E9CF8091BA
:1033B0000F0190911001909322018093210180913F
:1033C0006101909162019093200180931F0189E136
:1033D00080931D0159C1990C94B88D2F0E94000350
:1033E0005C01003C84E4180730F425E8C21621E0B3
:1033F000D206E8F605C080EBC8168DE4D806B8F60C
:1034000024EAE21622E0F20608F06CC088E9A81669
:10341000B10468F2C6010E946803AC019601A8E9F4
:10342000B7EB0E94212A9A0140E050E00E94E32974
:1034300029013A01C5010E9468039C01A8E9B7EB84
:103440000E94212A850120E030E0A90198010E9414
:10345000E32988E7C8168FE0D80680F4D301C201BB
:10346000F2E0880F991FAA1FBB1FFA95D1F7BC0184
:10347000CD01620F731F841F951F14C088E7A81623
:103480008FE0B806B0F4DA01C901E2E0880F991FB5
:10349000AA1FBB1FEA95D1F7BC01CD01640D751DB4
:1034A000861D971D25E030E040E050E00E94E329B2
:1034B0000CC0D301C201820F931FA41FB51F9C0132
:1034C000AD015695479537952795A4E6B0E00E9443
:1034D000362A2B013C012CEA420E2DE0521E611CC3
:1034E000711C79C0672D762D0617170708F4B801EF
:1034F000C52CD42CCE14DF0408F467010617170777
:1035000008F48B01A0900C01B0900D01C8010E943D
:103510006D039501DC010E94212A2B013C01C801A9
:103520000E9468039C0140E050E0C301B2010E9488
:10353000E32929013A01CE14DF0408F47601A090B2
:103540000501B0900601B701C6010E946D03950107
:10355000DC010E94212A4701A12CB12CA501940174
:103560000E94E32908378FE0180780F4D301C201D5
:1035700062E0880F991FAA1FBB1F6A95D1F7BC0193
:10358000CD01620F731F841F951F14C088E7E816D2
:103590008FE0F806C0F4DA01C90132E0880F991F04
:1035A000AA1FBB1F3A95D1F7BC01CD01640D751D53
:1035B000861D971D25E030E040E050E00E94E329A1
:1035C00029013A0108C0420E531E641E751E7694EE
:1035D00067945794479410910B01143008F0E7CE8C
:1035E000C1500C2F0D0F202F30E0E901C55BDE4FDD
:1035F0008881220F331F220F331FF901E656FE4F39
:103600008823D9F1C080D180E280F380A3019201A8
:103610002C193D094E095F0957FF07C05095409589
:10362000309521953F4F4F4F5F4FAAE0B0E00E9489
:10363000362A24E6C20ED11CE11CF11CA70196011A
:10364000240D351D461D571D0E94E329232B242BD5
:10365000252B09F0ACCE133019F081E080930B01DB
:1036600082E0888380916301E82FF0E0E25BFE4F07
:1036700000838F5F809363019ACE40825182628281
:10368000738281E0888393CECDB7DEB7E0E10C94FE
:103690005E2ACF93C82FC09595B160FF02C0982BCA
:1036A00001C09C2395B994B1892B84B90E94CC02A6
:1036B00084B18C2384B985B1C823C5B9CF9108954D
:1036C000AF92BF92DF92EF92FF920F931F93CF932F
:1036D000DF931AE08FE3D82E09E017B818B815B8B1
:1036E000D4B880E00E9400037C0181E00E940403C2
:1036F000EC0182E00E9404039C0180910B0189305F
:1037000079F417B814B8F0924601E0924501D093CD
:103710004801C093470130934A01209349015CC09E
:1037200084E0E816F10440F4C430D10568F4243094
:10373000310538F391E00CC091E088EEE81683E0A3
:10374000F80618F090E001C091E0C83ED34008F4BC
:103750009260283E334008F4946097B9C0E0D0E00E
:10376000A89580E00E94F9025C0181E00E940403B8
:103770007C0182E00E94040324E1A21625E0B20647
:1037800008F4389A24E1E21625E0F20608F4399AA2
:10379000843125E0920708F43A9A26E0A216B10493
:1037A00030F426E0E216F10410F4069738F0219682
:1037B000C43F81E0D807A1F600930B01E12CF12C66
:1037C000EC16FD0631F00E94BB022FEFE21AF20A5E
:1037D000F7CF115009F081CFDF91CF911F910F9159
:1037E000FF90EF90DF90BF90AF900895CF92DF925F
:1037F000EF92FF92CF932091670130916801409141
:10380000690150916A01C09179018AE0C82ED12CDA
:10381000E12CF12C8C2FCF5F213A96E8390791E00B
:103820004907510538F0CA01B901A70196010E9464
:10383000E329F0CF80937901A0912101B091220179
:103840000E94362A28E833E140E050E00E94E32954
:1038500020936701309368014093690150936A0196
:10386000CF91FF90EF90DF90CF9008958F929F922D
:10387000AF92BF92CF92DF92EF92FF921F93CF93BE
:10388000DF93982F990F980F2FEF260F920F909399
:103890004201E82FF0E0E057FE4FD491262F30E0B0
:1038A000F901E057FE4FF490F901ED56FE4FD49028
:1038B00090910B01913009F493C220910901EDE739
:1038C000F1E0DF0190E0921791F016963C91169787
:1038D000631309C03C91831306C0448555854C3D54
:1038E000554008F47DC29F5F11963296ECCF162F9B
:1038F000C82F109274011092730181EF80937901A7
:1039000010926701109268011092690110926A0189
:10391000D7DE18B8D7B8F4B8F5B88C2F0E940403D6
:103920005C01812F0E940403A81AB90A14B81092EE
:103930004401109243018091430190914401843FDE
:10394000914008F0A9C0D5B9D4B90E94B50214B805
:1039500015B80E94BC02A8958C2F0E9404037C011C
:10396000EA18FB0880914301909144018E3791053C
:1039700028F08BE4E816F1040CF48EC0809143012A
:10398000909144012DE2E21621E0F20634F4019612
:103990009093440180934301CECF892B09F0A1C1BC
:1039A00085E1E81685E0F8060CF49BC189DE15B8C0
:1039B00087E087B918B8FD2EFF0CF4B880E4809337
:1039C0007B0084E580BF8C2F806480937C0086E13F
:1039D00080937A000E94BF0210924401109243012A
:1039E00010928000109285001092840087E286BBBE
:1039F00081E280936F0081E080936401F5B890913B
:103A00000B0180938100953009F04BC081E090E07C
:103A10000C2E01C0880F0A94EAF78095877087B949
:103A2000F89483B7817F83BF80916401882389F0F4
:103A300083B7816083BF7894889583B78E7F83BF77
:103A4000F894A89580914301909144018034964068
:103A500059F7789410928100E0908600F0908700EA
:103A600010926F0086E980937A0014B815B88C2FF5
:103A70000E9404032091250130912601821B930BA3
:103A80000C9690937C0180937B01809143019091EF
:103A900044018032934038F017B818B814B815B8FC
:103AA0009FC1D7B8BDCF80914301909144019093BD
:103AB000720180937101F0927001E0926F0184EFC6
:103AC0008093790180914301909144018234910562
:103AD000C8F060916F0170917001809171019091B7
:103AE000720124E630E040E050E00E94E329209398
:103AF0006F0130937001409371015093720186EF12
:103B000080937901A0916501B091660120916F01C8
:103B10003091700140917101509172010E94362ADA
:103B200020E233E040E050E00E94E32920936F015F
:103B3000309370014093710150937201209367019B
:103B4000309368014093690150936A014FDE809180
:103B50007901843F09F070C0C0906701D09068017E
:103B6000E0906901F0906A0180EAC8168FE0D806FB
:103B7000E104F104C0F4A70196012C543F4F4F4FCC
:103B80005F4F60EA7FE080E090E00E94E329C20E90
:103B9000D31EE41EF51EC0926701D0926801E09228
:103BA0006901F0926A01C0906701D0906801E090CD
:103BB0006901F0906A01C114D10421E0E206F10428
:103BC00028F4D092AB01C092AA0106C081E090E037
:103BD0009093AB018093AA018091420190E08B55B4
:103BE0009D4F0E94AA2A90E0A0E0B0E08C159D05B0
:103BF000AE05BF0568F4C81AD90AEA0AFB0AC092E2
:103C00006701D0926801E0926901F0926A0114C0E4
:103C100034E1C30ED11CE11CF11CC816D906EA061A
:103C2000FB0610F40E94130C1092670110926801B9
:103C30001092690110926A01D4B980916701909144
:103C40006801A0916901B0916A014997A105B10588
:103C500008F422CFC12CD12C80910901882329F0AE
:103C600080910B01853009F017CF88E080930B011C
:103C70008091790190917A019817C4F089130CCF43
:103C80008090670190906801A0906901B0906A01EE
:103C900040916B0150916C0160916D0170916E01CA
:103CA000481559056A057B0508F0F6CE4091670175
:103CB000509168016091690170916A0140936B01B4
:103CC00050936C0160936D0170936E0180937A0143
:103CD000D0927601C092750110937701C09378015C
:103CE000DBCEC701C12CD12C20914301309144017E
:103CF0002C153D0560F00E94B6028C2F0E94040333
:103D00008A199B09A8952FEFC21AD20AEDCF570145
:103D1000A81AB90A1A141B049CF439ECA316B104AE
:103D20000CF0BACE28EE33E0D5010E94302A97017C
:103D30000F2C000C440B550B0E94E329690102C0B3
:103D4000C12CD12C80914301909144010196A0E0B7
:103D5000B0E080936F0190937001A0937101B093D4
:103D60007201C7018A0D9B1D0E94CE0320916F0135
:103D7000309170014091710150917201DC010E94FB
:103D8000362A60936F017093700180937101909354
:103D90007201609367017093680180936901909349
:103DA0006A0187EF8093790121DD209167013091CD
:103DB00068014091690150916A01A8EEB3E00E9448
:103DC000362A24E630E040E050E00E94E3292093C8
:103DD0006701309368014093690150936A013CCFB9
:103DE000DF91CF911F91FF90EF90DF90CF90BF9028
:103DF000AF909F908F9008951F920F920FB60F92E1
:103E000011248F939F93B59904C08091640181110F
:103E100009C0B59B10C080918600909187008A3FB1
:103E2000910548F48091430190914401019690934B
:103E30004401809343019F918F910F900FBE0F908B
:103E40001F9018951F920F920FB60F9211248F9307
:103E50009F9310926401B09B10C080918600909156
:103E600087008A3F910548F4809143019091440175
:103E7000019690934401809343019F918F910F90FD
:103E80000FBE0F901F901895A0E0B0E0EAE4FFE1AC
:103E90000C94462A88E893E19093100180930F01D7
:103EA00090932201809321018EEB80931D0118B81D
:103EB00080E187B90E94C40217B884E00E94000321
:103EC000AC018B5C9840833F9140A0F481E08093EB
:103ED0002C012091210130912201AFEBB9E00E9429
:103EE000212A9A0140E050E00E94E329309310011A
:103EF00020930F0180910F01909110019093220166
:103F0000809321018EE00E9404038EE00E94000352
:103F100090932601809325010E947603D1DB18B887
:103F2000C1E0C7B985E185B9C4B980E00E9400034A
:103F30008C0182E0D82ED7B8D4E0D4B981E00E94B9
:103F40000003080F191FD7B990E1C92EC4B882E049
:103F50000E940003080F191F15B8C8B9C7B9C4B922
:103F600080E00E9400030E9468037C01D8B8D7B8A3
:103F7000D4B981E00E9400030E946803E80EF91E94
:103F8000D8B9D7B9C4B882E00E9400030E94680380
:103F9000E701C80FD91F17B818B814B8209121012C
:103FA000309122016901CC0CDD1CC20ED31EC01A57
:103FB000D10ACC1ADD0AE12CF12C9801A0E9BAE172
:103FC0000E94212AA70196010E94E32949015A0172
:103FD00030932B0120932A019E01A0E9BAE10E94AF
:103FE000212AA70196010E94E329309324012093FE
:103FF00023012057354E30930D0120930C0180E7AB
:10400000881A85EE980A909206018092050189E14E
:1040100080931D01CDB7DEB7ECE00C94622ACF92FD
:10402000DF92EF92FF920F93CF93DF93F82EC62F7C
:10403000D42F0E94F20586E091E00E94290614D256
:104040006C2F8F2DCBD7C090AE01D090AF01E090F8
:10405000B001F090B1018091110187FD05C0C1143C
:10406000D104E104F10421F082E091E00E942906EC
:104070008C2F0E94F205C114D104E104F10431F047
:104080000E94E90180914E010E942002DD2351F03F
:1040900080912D018D3030F490E087559D4F0E9426
:1040A000290602C00E948D0680E00E94AB06CD2842
:1040B000CE28CF28D9F06091AE017091AF018091E8
:1040C000B0019091B10103E028E447EF0E94E206BD
:1040D00085E191E00E9429068AEB92E00E94B22AD3
:1040E00022E046E464EF0E9494071AC080914E01DA
:1040F0000E942002809111018E3F94F485E391E0AB
:104100000E94290660919501709196018091970116
:104110009091980103E028E4409111010E94E20689
:104120008091A6019091A701A091A801B091A90149
:10413000892B8A2B8B2BF1F080E00E94AB066091DB
:10414000A6017091A7018091A8019091A90104E0B6
:1041500028E440E00E94E20680E191E00E94290606
:1041600023E040E26FEF8091AC019091AD010E949D
:10417000940707C080E00E9493068091300181116E
:1041800002C00E948D06DF91CF910F91FF90EF90BA
:10419000DF90CF900895CF92DF92EF92FF920F932E
:1041A000CF93C82F0E94FA05809177010E94F205F3
:1041B00081E591E00E9429067DD36091770180918D
:1041C00078010E9431047C01909374018093730103
:1041D000C0907501D09076018AEFE8168FEFF8064F
:1041E00078F4C114D10441F081E090E0C11102C023
:1041F00080E090E0892B21F087E091E00E94290681
:10420000809178010E94F205CC2359F090912D0104
:104210008DE0891B0E94D50589E790E00E94290660
:1042200015C08091750190917601892B69F088E322
:1042300091E00E94290622E045E26FEF809175012E
:10424000909176010E9494070E948D060E940106BB
:1042500060916B0170916C0180916D0190916E0184
:1042600004E026E440917A010E94E2068AEFE81613
:104270008FEFF80668F480E491E00E94290622E0BE
:1042800047E06EEF80917301909174010E94940752
:104290000E948D06CC2391F0CD2881F080E00E9411
:1042A000AB0689E391E00E94290622E045E26FEF28
:1042B00080917501909176010E9494070E948D066D
:1042C000CF910F91FF90EF90DF90CF9008958F7076
:1042D00051F488EC0E94CD020E9401060E94C81190
:1042E00088EC0C94CD0208958F3021F49091270131
:1042F000913011F08F5F089580E00895CF9384E8A6
:1043000090E080D36AE080E00E94090683EB92E0AF
:104310000E942906C0E00E942B0860E082E00E9413
:10432000371962E080E00E9437190E94FA058091F7
:104330006301882329F041E062E080E070DE0FC075
:1043400084E890E00E94290683EB92E00E9429060F
:104350000E9401068FE30E94E7050E948D068C2FC4
:10436000B6DF88EE93E00E94A907811105C08C2F6B
:10437000BBDFC82F8A3F78F20E941906CF910895BB
:104380000F931F93CF93DF93C0E0D8E012EF0DE0BF
:104390000E942B0860E082E069DAD0930B018091E3
:1043A0007901843FD9F48091670190916801A091CF
:1043B0006901B0916A0184369105A105B10570F4D7
:1043C00040E060E082E09AD36093670170936801F7
:1043D0008093690190936A0110937901809179012A
:1043E000823FACF080937A018091670190916801DF
:1043F000A0916901B0916A0180936B0190936C0167
:10440000A0936D01B0936E0181E0C5DE18C00E94DB
:10441000FA058DE790E00E94290680912D01902FEA
:10442000981B892F0E94D50589E790E00E942906F4
:104430000E9401068FE30E94E7050E948D068C2FE3
:1044400046DF80ED97E00E94A907811106C08C2FFE
:104450004BDFC82F8A3F08F49BCF0E941906DF91DB
:10446000CF911F910F910895A4E1B0E0EAE3F2E249
:104470000C94402A82E08093110180910B018130DD
:1044800009F015C280916301813009F010C20091DA
:104490004E0124E0029FF0011124E656FE4F808178
:1044A0009181A281B381893032E59307A105B105DD
:1044B00008F0FDC14C0110E0802F123028F40E945A
:1044C0001602582E492E03C00E9416022C01E42D1C
:1044D000F0E0ED56FE4F2490852D90E0FC01E05772
:1044E000FE4FE49115B818B820EF82169104B0F48D
:1044F00010FD14C0A0900501B090060130E9A31A88
:104500003AE1B30A21E030E0052C02C0220F331F4C
:104510000A94E2F7C901822987B906C0E4B927B82D
:10452000A0900501B0900601F4E13F2E852D0E9478
:10453000FD023C01842D0E94040334E063167104E3
:1045400010F4049718F03A943110F0CF80E480937F
:104550007B0094E590BF852D806480937C0026E1EC
:1045600020937A00E12CF12C1092800010928500AB
:104570001092840037E236BB0E94BF02812F817007
:10458000382E10FD05C081E88093810028B808C04E
:1045900028B80E94C80290E296BB81E8809381000F
:1045A00086B385FF12C018B81092810020E226BBA6
:1045B00020918600309187006901409184005091DC
:1045C00085002417350770F014C080FFE9CF31E073
:1045D00036BBA89597012F5F3F4F790120353105F4
:1045E000F9F6E1CF80FF05C081E086BB9FEFE91AB5
:1045F000F90A86E980937A00E4E12E2E852D0E9447
:10460000FD023C01842D0E94040324E06216710423
:1046100010F4049718F02A942110F0CF40902A014A
:1046200050902B01480C591C4A0C5B1C209107012F
:104630003091080180E9A8168AE1B806A8F491EE45
:10464000C916D104E104F10430F4C60165E070E05C
:10465000A6D6645101C069E128523109261B3109EF
:1046600067FD339586E008C0C20160EB76E397D61C
:1046700087E0860F285D3F4F90E0A0E0B0E08C150A
:104680009D05AE05BF0528F4C81AD90AEA0AFB0A37
:1046900003C0C12CD12C7601332029F082E2C80E50
:1046A000D11CE11CF11C90E5E916F10418F0C12CB5
:1046B000D12C76018BE0C816D104E104F10428F076
:1046C00091E0C91AD108E108F10840912101509107
:1046D0002201612C712CA8EEB3E0B3D6698B7A8BE2
:1046E0008B8B9C8B9501DA01ACD6A30192016BD622
:1046F0004427552769897A898B899C8964D6C901A1
:104700000E940D04FC01A3019201C701B6012CD641
:104710002B013C01CF01A0E0B0E073E0880F991FAE
:10472000AA1FBB1F7A95D1F7BC01CD016B5F7F4FEC
:104730008F4F9F4F2AE030E040E050E044D6C30165
:10474000B20141D6E12FF0E0A1E0B0E0AC0FBD1F17
:1047500084E0189FA00DB11D11242D933D934D931E
:104760005C931397311016C09CE0C916D104E10484
:10477000F10480F03196EE0FFF1FEE0FFF1F81E076
:1047800090E08C0F9D1FE80FF91F20833183428337
:1047900053831F5FA8951F5F143008F48DCE18B89F
:1047A00084E00E94CD0291E00D811E812F81388529
:1047B00049815A816B817C814017510762077307D9
:1047C00008F090E00D851E852F85388949855A852A
:1047D0006B857C85401751076207730710F483E0EF
:1047E00001C082E0E92FF0E0EE0FFF1FEE0FFF1F88
:1047F00021E030E02C0F3D1FE20FF31FD90134E020
:10480000839FA00DB11D11240D911D912D913C91FF
:10481000408151816281738104171507260737078C
:1048200008F0892FE1E0F0E0EC0FFD1F94E0899F94
:10483000E00DF11D1124408151816281738140930B
:10484000950150939601609397017093980180FDB4
:1048500008C020EF8216910420F48BEF80931101A1
:1048600016C08CEF80931101CB01BA016B5F7F4FB3
:104870008F4F9F4F2AE030E040E050E0A4D52093D6
:104880009501309396014093970150939801809140
:10489000950190919601A0919701B0919801892B73
:1048A0008A2B8B2B11F41092110117B814B864964F
:1048B000E2E102C6A0E0B0E0EFE5F4E2E7C58091F6
:1048C000750190917601892B09F098C0E0917701EC
:1048D000F0E0ED56FE4FD491E0917801F0E0E05722
:1048E000FE4FC4910E94601B18B815B8D7B9C4B95F
:1048F000809178010E9404038C01D0917A018CE0B0
:104900008D0F843008F07AC080916B0190916C011A
:10491000A0916D01B0916E01D15F2AE0822E912CA1
:10492000A12CB12CBC01CD016B5F7F4F8F4F9F4FEE
:10493000A501940148D569017A01DA01C901DF5F57
:10494000D73081F729E8C21623E1D206E104F10449
:1049500008F054C0059708F451C0C5B9C4B9C0E007
:10496000D0E0CC15DD0520F40E94C6022296F9CFD6
:1049700014B815B8A89585E080931D018091780141
:104980000E9404030817190720F4EC01C01BD10B87
:1049900002C0C0E0D0E0A12CB12CAC14BD0430F4B6
:1049A0000E94C6028FEFA81AB80AF7CF809178014B
:1049B0000E94040329E120931D01A89508171907F7
:1049C00018F4801B910B02C080E090E08C179D07CB
:1049D00078F49E01281B390B59F0A4EFB1E031D5D2
:1049E0009E0140E050E0EFD43093760120937501B2
:1049F0000E94601B17B818B814B815B8CDB7DEB749
:104A0000ECE060C5CF93DF93EC010E941906CE0164
:104A10000E942906C4E60E94CC024F9902C0C150F0
:104A2000D1F70E940106DF91CF9108951F920F9256
:104A30000FB60F9211248F9386E085BD8F910F9052
:104A40000FBE0F901F9018958F929F92AF92BF92BA
:104A5000CF92DF92EF92FF92FC014C01A12CB12C7E
:104A60007401DD24CC244F2F55279F01DF01E9D4A9
:104A70009C013695279536952795C901969587957A
:104A800096958795BC0176956795649FD001659F43
:104A9000B00D749FB00D1124BF01729562956F70B7
:104AA00067277F706727460F571FE40FF51F281BE6
:104AB000390BA90160E070E04E0F5F1F611D711D91
:104AC000CD0123E0969587952A95E1F7A81BB90BB0
:104AD0009A01AB012A0F3B1F411D511DC501B401B5
:104AE00043D46C0D7D1D8E1D9F1DFF90EF90DF90B8
:104AF000CF90BF90AF909F908F900895A3E0B2E0C9
:104B0000E3E8F5E2BDC4182FCD5FDD4F6883C350E5
:104B1000D240CF5FDD4F4883C150D2400E94601B1E
:104B2000E12FF0E0E057FE4FB490AB2CAA0CCD5F24
:104B3000DD4F2881C350D240E22FF0E0ED56FE4F0A
:104B4000E491E7B915B8B4B8812F806480937C00F4
:104B50000E94C002CF5FDD4F3881C150D24031701A
:104B6000CE5FDD4F3883C250D240CF5FDD4F4881EA
:104B7000C150D24040FD02C0DA2C01C0DB2CE0E283
:104B8000FE2E80E090E0CB2CED2C0A2D2D2D44E75D
:104B9000BE016F5F7F4F0E943400FA9480E490E082
:104BA000F110F1CF14B81E0157E4250E311C73E249
:104BB000472E512C612C712CC12CD12C7601812CCB
:104BC000912C5401CE5FDD4F8881C250D240F1015B
:104BD000882341F08081918120E030E8281B390B47
:104BE000C90102C0808191812FDF9C0140E050E02B
:104BF000820E931EA41EB51EC301B201B5D3C60E0C
:104C0000D71EE81EF91EFFEF4F1A5F0A6F0A7F0AD0
:104C100022E0220E311C34E7431651046104710472
:104C200089F6C501B40121E530E040E050E0CBD386
:104C3000ABEBB7E11BD4A7019601261B370B480B42
:104C4000590B64E056954795379527956A95D1F7A6
:104C500060EE7DEC81EC9FE8B6D369017A01CF5F0D
:104C6000DD4F3881C150D24031FD1FC0812F880FE8
:104C7000180FCD5FDD4F8880C350D2408A94180D45
:104C8000812F90E0CE5FDD4F4881C250D240880F27
:104C9000991F442319F087579D4F02C089569D4F95
:104CA00061D4C81AD90AE108F108C701B601CD5F7D
:104CB000DD4FE2E101C44F925F926F927F928F923B
:104CC0009F92AF92BF92FF920F931F93CF93DF9368
:104CD000C0E0FC2EFF0CFC0ED0E0FA94CD1709F4D6
:104CE0003EC042E06D2F8C2F09DF2B013C0143E0D9
:104CF0006D2F8C2F03DF4B015C010E94190685E9A3
:104D000090E00E9429060E94E9018C2F0E94F20582
:104D10008AE30E94E7058D2F0E94F2050E94E901B7
:104D20000E94010624E040E26EEFC2010E94940757
:104D300024E046E462EFC4010E9494070F2D0D0F9A
:104D400010E0000F111FB201C80189569D4F1DD4FC
:104D5000B401C80187579D4F18D40E948D06DF5FAC
:104D6000D33009F0BBCFCF5FC33009F0B2CF0E9480
:104D7000FA058BE991E00E9429060E948D0688E2DF
:104D80000E94CD02DF91CF911F910F91FF90BF90B4
:104D9000AF909F908F907F906F905F904F9008950D
:104DA000A2E1B0E0E5EDF6E26BC32C017C836B83FE
:104DB000DD24D3942D2C312C83E0D89EA001112426
:104DC0005C874B87F101EE0FFF1FEE0FFF1FFE8781
:104DD000ED87812C30E4932E50E0612C712C1886E5
:104DE0001F82A12CB12C1A8219821E821D8240E0E2
:104DF000C12CE0E0F0E020E030E061E070E08FEF17
:104E000090E082199309988B8F870C2D10E08F8585
:104E10009889081719070CF05EC0D801A20DB31DC0
:104E2000AA0FBB1FA40DB51D8D919C91E80FF91F12
:104E3000D801AA0FBB1FA40DB51D8D919C91280F01
:104E4000391FCD1408F48CC0D801A219B309AA0FD8
:104E5000BB1FA40DB51D0D90BC91A02D2A1B3B0BB3
:104E6000E81BF90B7901EE0EFF1EC9018E1B9F0B8B
:104E700089879A87D701B695A795B695A795A80F64
:104E8000B91FB7FD9DC0E217F30708F071C051309C
:104E900009F06EC0D80156E0AA0FBB1F5A95E1F782
:104EA000BA8BA98BDC01A61BB70BBD01A817B907EC
:104EB00068F0A6E0880F991FAA95E1F780966FD257
:104EC00089899A89861B970B9A8B898BAB85BC85C0
:104ED000EA16FB0630F4EB81FC81EF2B09F04CC0A5
:104EE00079C08D859E8508171907BCF1A989BA89F3
:104EF0004423A9F0A619B709433058F0C40180969D
:104F0000B40176956795860F971F8A179B0708F45B
:104F10005DC0DB1640F4DD24D394DB0E4BCFB887A5
:104F2000AF83FE82ED82AE0CBF1C4F5F4130D9F0E3
:104F3000642F70E061507109CB0195958795A9891F
:104F4000BA898A0F9B1FAF81B8858A1B9B0B27D21A
:104F50004B0169887A88FA82E982453140F036C08F
:104F600069877A8705C069887A88FA82E98250E081
:104F7000C39469857A8549CF4230D8F09501ED8197
:104F8000FE812E1B3F0BA8EEB3E05BD29501498159
:104F90005A81241B350B40E050E015D288EE93E097
:104FA000821B930B0E940D04BC0188EB9AE7F7D19A
:104FB00002C060E070E0AB81BC816D937C930AC05D
:104FC000E217F30708F466CF51E0D2CFEB81FC8102
:104FD000EF2BA1F6C4016296E2E16EC2A6E2B2E056
:104FE000E3EFF7E24FC2F82E062F8AEB92E0BAD237
:104FF0003C01E02FF0E0E057FE4F1491EF2DF0E080
:10500000ED56FE4FE4911092A6011092A701109266
:10501000A8011092A9011092AD011092AC0110925A
:10502000AE011092AF011092B0011092B1018091C7
:105030000B01813009F04EC18091110118160CF45A
:1050400049C118B8E7B90E94C002006CD02E009385
:105050007C000E94C002C12EE12C00E0212F4FEF06
:10506000BE016F5F7F4F80E191E00E9434002F2DE1
:10507000206CF22E20937C00212F44E1BE01615070
:105080007E4F80E191E00E943400FE013196DE0106
:10509000A150BE4FAE01475D5F4F808191812D9140
:1050A0003D918217930728F0821B930B9183808395
:1050B00002C01182108232964E175F0771F7D092AC
:1050C0007C0060E070E0CE0101966ADE9F5F913166
:1050D00048F0903470F090E1A92EBA2C24E0822E92
:1050E000912C0EC080E1A82EBB24B394812C912C6E
:1050F00007C0B0E1AB2EB4E0BB2E02E0802E912CB5
:10510000A8E0DA2EA895C12EE12C00E0212F4FEF68
:10511000BE016F5F7F4FC5010E943400811491046E
:1051200079F06CEA71E0CE0101963ADE5C0181EC27
:10513000A8168FE3B80608F45BC0A12CB12C58C0A8
:10514000C5018064DA94DD2011F05C01DBCF8115AC
:10515000944010F08EEF38C0F0927C00E894A6F8EE
:10516000F8E0FF2EC12EE12C00E0212F44E1BE012A
:1051700061507E4FC5010E9434006894A6F8FA94ED
:10518000F110F0CF24E1215028F3822F90E0880F16
:10519000991FE1E0F0E0EC0FFD1FE80FF91F4081DF
:1051A0005181AFEFB1E0AC0FBD1FA80FB91F8D91BA
:1051B0009C914817590728F0481B590B518340838D
:1051C000E2CF11821082DFCF8F3F09F4AACFFE0118
:1051D0003196E80FF11DE80FF11D2081318173E058
:1051E000369527957A95E1F7318320838150ECCF6E
:1051F0006501E12CF12C9501D50123D123E330E0A9
:1052000040E050E0E0D0A8E6B2E030D12FEF821AC3
:10521000920A93013695279540E050E0D4D0C4011E
:10522000880F991F29013A0104C0440C551C661CC3
:10523000771C8A95D2F74092AE015092AF016092EE
:10524000B0017092B1018091950190919601A09169
:105250009701B09198010397A105B10540F0109214
:10526000AE011092AF011092B0011092B101A114E1
:10527000B10469F41092AD011092AC011092AE012C
:105280001092AF011092B0011092B10123C027E03B
:1052900030E02819390980E092E1AAE7B0E0BC01CA
:1052A000CD0104C0660F771F881F991F2A95D2F77A
:1052B000A701960188D02093A6013093A7014093BF
:1052C000A8015093A9018091110187FD03C08FEFC0
:1052D00080931101CA5DDD4FE0E1F0C0CF93DF9311
:1052E000D82F0E94FA0586E090E00E9429060E94CD
:1052F0008D06C0E01092AB011092AA0184E10E94D9
:10530000CD0262E080E00E94361C0E94010624E08B
:1053100046E464EF8091AA019091AB010E9494074A
:105320006091AA017091AB01CB018C539F408539EC
:10533000954780F4CF5FC53070F08AEB92E025D1BD
:105340000E94E9018BE991E00E94290684E60E940F
:10535000CD0205C0C0E00E948D06DF5F59F60E94B5
:10536000FA05DF91CF910895DB018F939F937ED053
:10537000BF91AF91A29F800D911DA39F900DB29FF1
:10538000900D11240895991B79E004C0991F961778
:1053900008F0961B881F7A95C9F780950895AA1B77
:1053A000BB1B51E107C0AA1FBB1FA617B70710F010
:1053B000A61BB70B881F991F5A95A9F78095909542
:1053C000BC01CD010895A1E21A2EAA1BBB1BFD0151
:1053D0000DC0AA1FBB1FEE1FFF1FA217B307E407D4
:1053E000F50720F0A21BB30BE40BF50B661F771F2C
:1053F000881F991F1A9469F760957095809590950C
:105400009B01AC01BD01CF010895052E97FB16F459
:1054100000940FD057FD05D0D6DF07FC02D046F42C
:1054200008C050954095309521953F4F4F4F5F4FA5
:10543000089590958095709561957F4F8F4F9F4F00
:105440000895A29FB001B39FC001A39F700D811D5D
:105450001124911DB29F700D811D1124911D08957D
:10546000F0DFB7FF0895821B930B0895EADFA59F35
:10547000900DB49F900DA49F800D911D112408954F
:105480002F923F924F925F926F927F928F929F9254
:10549000AF92BF92CF92DF92EF92FF920F931F9342
:1054A000CF93DF93CDB7DEB7CA1BDB0B0FB6F894F3
:1054B000DEBF0FBECDBF09942A88398848885F8433
:1054C0006E847D848C849B84AA84B984C884DF80A4
:1054D000EE80FD800C811B81AA81B981CE0FD11D88
:1054E0000FB6F894DEBF0FBECDBFED010895453273
:1054F000510518F4423008F004C0FB011082CB01C2
:105500000895BB27FB015527AA27880F991FAA1FBB
:10551000A41710F0A41B83955051B9F7A05DAA33CE
:1055200008F0A95DA193009779F7B111B193119299
:10553000CB0100C0DC01FC01672F71917723E1F7FB
:10554000329704C07C916D9370836291AE17BF0750
:10555000C8F30895F999FECF92BD81BDF89A9927B5
:1055600080B50895A8E1B0E042E050E013C0262FD6
:10557000F999FECF1FBA92BD81BD20BD0FB6F89438
:10558000FA9AF99A0FBE01960895F1DF272FF0CF0E
:10559000DC01CB01FC01F999FECF06C0F2BDE1BDF3
:1055A000F89A319600B40D9241505040B8F70895E2
:0455B000F894FFCF9D
:00000001FF
